{
  "_format": "hh-sol-artifact-1",
  "contractName": "ERC1155MetaTx",
  "sourceName": "contracts/ERC1155MetaTx.sol",
  "abi": [
    {
      "inputs": [
        {
          "internalType": "contract MinimalForwarder",
          "name": "forwarder",
          "type": "address"
        },
        {
          "internalType": "string",
          "name": "_uri",
          "type": "string"
        },
        {
          "internalType": "string",
          "name": "_name",
          "type": "string"
        },
        {
          "internalType": "string",
          "name": "_symbol",
          "type": "string"
        }
      ],
      "stateMutability": "nonpayable",
      "type": "constructor"
    },
    {
      "inputs": [],
      "name": "InvalidSignature",
      "type": "error"
    },
    {
      "anonymous": false,
      "inputs": [
        {
          "indexed": true,
          "internalType": "address",
          "name": "account",
          "type": "address"
        },
        {
          "indexed": true,
          "internalType": "address",
          "name": "operator",
          "type": "address"
        },
        {
          "indexed": false,
          "internalType": "bool",
          "name": "approved",
          "type": "bool"
        }
      ],
      "name": "ApprovalForAll",
      "type": "event"
    },
    {
      "anonymous": false,
      "inputs": [
        {
          "indexed": true,
          "internalType": "address",
          "name": "operator",
          "type": "address"
        },
        {
          "indexed": true,
          "internalType": "address",
          "name": "from",
          "type": "address"
        },
        {
          "indexed": true,
          "internalType": "address",
          "name": "to",
          "type": "address"
        },
        {
          "indexed": false,
          "internalType": "uint256[]",
          "name": "ids",
          "type": "uint256[]"
        },
        {
          "indexed": false,
          "internalType": "uint256[]",
          "name": "values",
          "type": "uint256[]"
        }
      ],
      "name": "TransferBatch",
      "type": "event"
    },
    {
      "anonymous": false,
      "inputs": [
        {
          "indexed": true,
          "internalType": "address",
          "name": "operator",
          "type": "address"
        },
        {
          "indexed": true,
          "internalType": "address",
          "name": "from",
          "type": "address"
        },
        {
          "indexed": true,
          "internalType": "address",
          "name": "to",
          "type": "address"
        },
        {
          "indexed": false,
          "internalType": "uint256",
          "name": "id",
          "type": "uint256"
        },
        {
          "indexed": false,
          "internalType": "uint256",
          "name": "value",
          "type": "uint256"
        }
      ],
      "name": "TransferSingle",
      "type": "event"
    },
    {
      "anonymous": false,
      "inputs": [
        {
          "indexed": false,
          "internalType": "string",
          "name": "value",
          "type": "string"
        },
        {
          "indexed": true,
          "internalType": "uint256",
          "name": "id",
          "type": "uint256"
        }
      ],
      "name": "URI",
      "type": "event"
    },
    {
      "inputs": [
        {
          "internalType": "address",
          "name": "account",
          "type": "address"
        },
        {
          "internalType": "uint256",
          "name": "id",
          "type": "uint256"
        }
      ],
      "name": "balanceOf",
      "outputs": [
        {
          "internalType": "uint256",
          "name": "",
          "type": "uint256"
        }
      ],
      "stateMutability": "view",
      "type": "function"
    },
    {
      "inputs": [
        {
          "internalType": "address[]",
          "name": "accounts",
          "type": "address[]"
        },
        {
          "internalType": "uint256[]",
          "name": "ids",
          "type": "uint256[]"
        }
      ],
      "name": "balanceOfBatch",
      "outputs": [
        {
          "internalType": "uint256[]",
          "name": "",
          "type": "uint256[]"
        }
      ],
      "stateMutability": "view",
      "type": "function"
    },
    {
      "inputs": [
        {
          "internalType": "address",
          "name": "account",
          "type": "address"
        },
        {
          "internalType": "address",
          "name": "operator",
          "type": "address"
        }
      ],
      "name": "isApprovedForAll",
      "outputs": [
        {
          "internalType": "bool",
          "name": "",
          "type": "bool"
        }
      ],
      "stateMutability": "view",
      "type": "function"
    },
    {
      "inputs": [
        {
          "internalType": "address",
          "name": "forwarder",
          "type": "address"
        }
      ],
      "name": "isTrustedForwarder",
      "outputs": [
        {
          "internalType": "bool",
          "name": "",
          "type": "bool"
        }
      ],
      "stateMutability": "view",
      "type": "function"
    },
    {
      "inputs": [],
      "name": "name",
      "outputs": [
        {
          "internalType": "string",
          "name": "",
          "type": "string"
        }
      ],
      "stateMutability": "view",
      "type": "function"
    },
    {
      "inputs": [
        {
          "internalType": "address",
          "name": "_account",
          "type": "address"
        },
        {
          "internalType": "uint256",
          "name": "_tokenId",
          "type": "uint256"
        },
        {
          "internalType": "uint256",
          "name": "_amount",
          "type": "uint256"
        },
        {
          "internalType": "bytes",
          "name": "_data",
          "type": "bytes"
        },
        {
          "internalType": "bytes",
          "name": "_signature",
          "type": "bytes"
        }
      ],
      "name": "redeem",
      "outputs": [],
      "stateMutability": "payable",
      "type": "function"
    },
    {
      "inputs": [
        {
          "internalType": "address",
          "name": "from",
          "type": "address"
        },
        {
          "internalType": "address",
          "name": "to",
          "type": "address"
        },
        {
          "internalType": "uint256[]",
          "name": "ids",
          "type": "uint256[]"
        },
        {
          "internalType": "uint256[]",
          "name": "amounts",
          "type": "uint256[]"
        },
        {
          "internalType": "bytes",
          "name": "data",
          "type": "bytes"
        }
      ],
      "name": "safeBatchTransferFrom",
      "outputs": [],
      "stateMutability": "nonpayable",
      "type": "function"
    },
    {
      "inputs": [
        {
          "internalType": "address",
          "name": "from",
          "type": "address"
        },
        {
          "internalType": "address",
          "name": "to",
          "type": "address"
        },
        {
          "internalType": "uint256",
          "name": "id",
          "type": "uint256"
        },
        {
          "internalType": "uint256",
          "name": "amount",
          "type": "uint256"
        },
        {
          "internalType": "bytes",
          "name": "data",
          "type": "bytes"
        }
      ],
      "name": "safeTransferFrom",
      "outputs": [],
      "stateMutability": "nonpayable",
      "type": "function"
    },
    {
      "inputs": [
        {
          "internalType": "address",
          "name": "operator",
          "type": "address"
        },
        {
          "internalType": "bool",
          "name": "approved",
          "type": "bool"
        }
      ],
      "name": "setApprovalForAll",
      "outputs": [],
      "stateMutability": "nonpayable",
      "type": "function"
    },
    {
      "inputs": [
        {
          "internalType": "bytes4",
          "name": "interfaceId",
          "type": "bytes4"
        }
      ],
      "name": "supportsInterface",
      "outputs": [
        {
          "internalType": "bool",
          "name": "",
          "type": "bool"
        }
      ],
      "stateMutability": "view",
      "type": "function"
    },
    {
      "inputs": [],
      "name": "symbol",
      "outputs": [
        {
          "internalType": "string",
          "name": "",
          "type": "string"
        }
      ],
      "stateMutability": "view",
      "type": "function"
    },
    {
      "inputs": [
        {
          "internalType": "uint256",
          "name": "",
          "type": "uint256"
        }
      ],
      "name": "uri",
      "outputs": [
        {
          "internalType": "string",
          "name": "",
          "type": "string"
        }
      ],
      "stateMutability": "view",
      "type": "function"
    }
  ],
  "bytecode": "0x6101606040523480156200001257600080fd5b5060405162003e8138038062003e81833981810160405281019062000038919062000433565b6040518060400160405280600d81526020017f455243313135354d6574615478000000000000000000000000000000000000008152506040518060400160405280600581526020017f312e302e300000000000000000000000000000000000000000000000000000008152508585620000b781620001d660201b60201c565b508073ffffffffffffffffffffffffffffffffffffffff1660808173ffffffffffffffffffffffffffffffffffffffff168152505050600160038190555060008280519060200120905060008280519060200120905060007f8b73c3c69bb8fe3d512ecc4cf759cc79239f7b179b0ffacaa9a75d522b39400f90508261010081815250508161012081815250504660c081815250506200015f818484620001eb60201b60201c565b60a081815250503073ffffffffffffffffffffffffffffffffffffffff1660e08173ffffffffffffffffffffffffffffffffffffffff168152505080610140818152505050505050508160049081620001b991906200074d565b508060059081620001cb91906200074d565b5050505050620008ce565b8060029081620001e791906200074d565b5050565b600083838346306040516020016200020895949392919062000871565b6040516020818303038152906040528051906020012090509392505050565b6000604051905090565b600080fd5b600080fd5b600073ffffffffffffffffffffffffffffffffffffffff82169050919050565b600062000268826200023b565b9050919050565b60006200027c826200025b565b9050919050565b6200028e816200026f565b81146200029a57600080fd5b50565b600081519050620002ae8162000283565b92915050565b600080fd5b600080fd5b6000601f19601f8301169050919050565b7f4e487b7100000000000000000000000000000000000000000000000000000000600052604160045260246000fd5b6200030982620002be565b810181811067ffffffffffffffff821117156200032b576200032a620002cf565b5b80604052505050565b60006200034062000227565b90506200034e8282620002fe565b919050565b600067ffffffffffffffff821115620003715762000370620002cf565b5b6200037c82620002be565b9050602081019050919050565b60005b83811015620003a95780820151818401526020810190506200038c565b60008484015250505050565b6000620003cc620003c68462000353565b62000334565b905082815260208101848484011115620003eb57620003ea620002b9565b5b620003f884828562000389565b509392505050565b600082601f830112620004185762000417620002b4565b5b81516200042a848260208601620003b5565b91505092915050565b6000806000806080858703121562000450576200044f62000231565b5b600062000460878288016200029d565b945050602085015167ffffffffffffffff81111562000484576200048362000236565b5b620004928782880162000400565b935050604085015167ffffffffffffffff811115620004b657620004b562000236565b5b620004c48782880162000400565b925050606085015167ffffffffffffffff811115620004e857620004e762000236565b5b620004f68782880162000400565b91505092959194509250565b600081519050919050565b7f4e487b7100000000000000000000000000000000000000000000000000000000600052602260045260246000fd5b600060028204905060018216806200055557607f821691505b6020821081036200056b576200056a6200050d565b5b50919050565b60008190508160005260206000209050919050565b60006020601f8301049050919050565b600082821b905092915050565b600060088302620005d57fffffffffffffffffffffffffffffffffffffffffffffffffffffffffffffffff8262000596565b620005e1868362000596565b95508019841693508086168417925050509392505050565b6000819050919050565b6000819050919050565b60006200062e620006286200062284620005f9565b62000603565b620005f9565b9050919050565b6000819050919050565b6200064a836200060d565b62000662620006598262000635565b848454620005a3565b825550505050565b600090565b620006796200066a565b620006868184846200063f565b505050565b5b81811015620006ae57620006a26000826200066f565b6001810190506200068c565b5050565b601f821115620006fd57620006c78162000571565b620006d28462000586565b81016020851015620006e2578190505b620006fa620006f18562000586565b8301826200068b565b50505b505050565b600082821c905092915050565b6000620007226000198460080262000702565b1980831691505092915050565b60006200073d83836200070f565b9150826002028217905092915050565b620007588262000502565b67ffffffffffffffff811115620007745762000773620002cf565b5b6200078082546200053c565b6200078d828285620006b2565b600060209050601f831160018114620007c55760008415620007b0578287015190505b620007bc85826200072f565b8655506200082c565b601f198416620007d58662000571565b60005b82811015620007ff57848901518255600182019150602085019450602081019050620007d8565b868310156200081f57848901516200081b601f8916826200070f565b8355505b6001600288020188555050505b505050505050565b6000819050919050565b620008498162000834565b82525050565b6200085a81620005f9565b82525050565b6200086b816200025b565b82525050565b600060a0820190506200088860008301886200083e565b6200089760208301876200083e565b620008a660408301866200083e565b620008b560608301856200084f565b620008c4608083018462000860565b9695505050505050565b60805160a05160c05160e051610100516101205161014051613558620009296000396000611a6f01526000611ab101526000611a90015260006119c501526000611a1b01526000611a44015260006106c001526135586000f3fe6080604052600436106100a65760003560e01c8063572b6c0511610064578063572b6c05146101f357806395d89b4114610230578063a22cb4651461025b578063e985e9c514610284578063eb4e5fe7146102c1578063f242432a146102dd576100a6565b8062fdd58e146100ab57806301ffc9a7146100e857806306fdde03146101255780630e89341c146101505780632eb2c2d61461018d5780634e1273f4146101b6575b600080fd5b3480156100b757600080fd5b506100d260048036038101906100cd9190611e89565b610306565b6040516100df9190611ed8565b60405180910390f35b3480156100f457600080fd5b5061010f600480360381019061010a9190611f4b565b6103ce565b60405161011c9190611f93565b60405180910390f35b34801561013157600080fd5b5061013a6103e0565b604051610147919061203e565b60405180910390f35b34801561015c57600080fd5b5061017760048036038101906101729190612060565b61046e565b604051610184919061203e565b60405180910390f35b34801561019957600080fd5b506101b460048036038101906101af919061228a565b610502565b005b3480156101c257600080fd5b506101dd60048036038101906101d8919061241c565b6105a3565b6040516101ea9190612552565b60405180910390f35b3480156101ff57600080fd5b5061021a60048036038101906102159190612574565b6106bc565b6040516102279190611f93565b60405180910390f35b34801561023c57600080fd5b50610245610714565b604051610252919061203e565b60405180910390f35b34801561026757600080fd5b50610282600480360381019061027d91906125cd565b6107a2565b005b34801561029057600080fd5b506102ab60048036038101906102a6919061260d565b6107b8565b6040516102b89190611f93565b60405180910390f35b6102db60048036038101906102d691906126a8565b61084c565b005b3480156102e957600080fd5b5061030460048036038101906102ff919061275e565b610872565b005b60008073ffffffffffffffffffffffffffffffffffffffff168373ffffffffffffffffffffffffffffffffffffffff1603610376576040517f08c379a000000000000000000000000000000000000000000000000000000000815260040161036d90612867565b60405180910390fd5b60008083815260200190815260200160002060008473ffffffffffffffffffffffffffffffffffffffff1673ffffffffffffffffffffffffffffffffffffffff16815260200190815260200160002054905092915050565b60006103d982610913565b9050919050565b600480546103ed906128b6565b80601f0160208091040260200160405190810160405280929190818152602001828054610419906128b6565b80156104665780601f1061043b57610100808354040283529160200191610466565b820191906000526020600020905b81548152906001019060200180831161044957829003601f168201915b505050505081565b60606002805461047d906128b6565b80601f01602080910402602001604051908101604052809291908181526020018280546104a9906128b6565b80156104f65780601f106104cb576101008083540402835291602001916104f6565b820191906000526020600020905b8154815290600101906020018083116104d957829003601f168201915b50505050509050919050565b61050a6109f5565b73ffffffffffffffffffffffffffffffffffffffff168573ffffffffffffffffffffffffffffffffffffffff161480610550575061054f8561054a6109f5565b6107b8565b5b61058f576040517f08c379a000000000000000000000000000000000000000000000000000000000815260040161058690612959565b60405180910390fd5b61059c8585858585610a04565b5050505050565b606081518351146105e9576040517f08c379a00000000000000000000000000000000000000000000000000000000081526004016105e0906129eb565b60405180910390fd5b6000835167ffffffffffffffff81111561060657610605612092565b5b6040519080825280602002602001820160405280156106345781602001602082028036833780820191505090505b50905060005b84518110156106b15761068185828151811061065957610658612a0b565b5b602002602001015185838151811061067457610673612a0b565b5b6020026020010151610306565b82828151811061069457610693612a0b565b5b602002602001018181525050806106aa90612a69565b905061063a565b508091505092915050565b60007f000000000000000000000000000000000000000000000000000000000000000073ffffffffffffffffffffffffffffffffffffffff168273ffffffffffffffffffffffffffffffffffffffff16149050919050565b60058054610721906128b6565b80601f016020809104026020016040519081016040528092919081815260200182805461074d906128b6565b801561079a5780601f1061076f5761010080835404028352916020019161079a565b820191906000526020600020905b81548152906001019060200180831161077d57829003601f168201915b505050505081565b6107b46107ad6109f5565b8383610d25565b5050565b6000600160008473ffffffffffffffffffffffffffffffffffffffff1673ffffffffffffffffffffffffffffffffffffffff16815260200190815260200160002060008373ffffffffffffffffffffffffffffffffffffffff1673ffffffffffffffffffffffffffffffffffffffff16815260200190815260200160002060009054906101000a900460ff16905092915050565b610854610e91565b610862868686868686610ee0565b61086a610f81565b505050505050565b61087a6109f5565b73ffffffffffffffffffffffffffffffffffffffff168573ffffffffffffffffffffffffffffffffffffffff1614806108c057506108bf856108ba6109f5565b6107b8565b5b6108ff576040517f08c379a00000000000000000000000000000000000000000000000000000000081526004016108f690612959565b60405180910390fd5b61090c8585858585610f8b565b5050505050565b60007fd9b67a26000000000000000000000000000000000000000000000000000000007bffffffffffffffffffffffffffffffffffffffffffffffffffffffff1916827bffffffffffffffffffffffffffffffffffffffffffffffffffffffff191614806109de57507f0e89341c000000000000000000000000000000000000000000000000000000007bffffffffffffffffffffffffffffffffffffffffffffffffffffffff1916827bffffffffffffffffffffffffffffffffffffffffffffffffffffffff1916145b806109ee57506109ed82611226565b5b9050919050565b60006109ff611290565b905090565b8151835114610a48576040517f08c379a0000000000000000000000000000000000000000000000000000000008152600401610a3f90612b23565b60405180910390fd5b600073ffffffffffffffffffffffffffffffffffffffff168473ffffffffffffffffffffffffffffffffffffffff1603610ab7576040517f08c379a0000000000000000000000000000000000000000000000000000000008152600401610aae90612bb5565b60405180910390fd5b6000610ac16109f5565b9050610ad18187878787876112c2565b60005b8451811015610c82576000858281518110610af257610af1612a0b565b5b602002602001015190506000858381518110610b1157610b10612a0b565b5b60200260200101519050600080600084815260200190815260200160002060008b73ffffffffffffffffffffffffffffffffffffffff1673ffffffffffffffffffffffffffffffffffffffff16815260200190815260200160002054905081811015610bb2576040517f08c379a0000000000000000000000000000000000000000000000000000000008152600401610ba990612c47565b60405180910390fd5b81810360008085815260200190815260200160002060008c73ffffffffffffffffffffffffffffffffffffffff1673ffffffffffffffffffffffffffffffffffffffff168152602001908152602001600020819055508160008085815260200190815260200160002060008b73ffffffffffffffffffffffffffffffffffffffff1673ffffffffffffffffffffffffffffffffffffffff1681526020019081526020016000206000828254610c679190612c67565b9250508190555050505080610c7b90612a69565b9050610ad4565b508473ffffffffffffffffffffffffffffffffffffffff168673ffffffffffffffffffffffffffffffffffffffff168273ffffffffffffffffffffffffffffffffffffffff167f4a39dc06d4c0dbc64b70af90fd698a233a518aa5d07e595d983b8c0526c8f7fb8787604051610cf9929190612c9b565b60405180910390a4610d0f8187878787876112ca565b610d1d8187878787876112d2565b505050505050565b8173ffffffffffffffffffffffffffffffffffffffff168373ffffffffffffffffffffffffffffffffffffffff1603610d93576040517f08c379a0000000000000000000000000000000000000000000000000000000008152600401610d8a90612d44565b60405180910390fd5b80600160008573ffffffffffffffffffffffffffffffffffffffff1673ffffffffffffffffffffffffffffffffffffffff16815260200190815260200160002060008473ffffffffffffffffffffffffffffffffffffffff1673ffffffffffffffffffffffffffffffffffffffff16815260200190815260200160002060006101000a81548160ff0219169083151502179055508173ffffffffffffffffffffffffffffffffffffffff168373ffffffffffffffffffffffffffffffffffffffff167f17307eab39ab6107e8899845ad3d59bd9653f200f220920489ca2b5937696c3183604051610e849190611f93565b60405180910390a3505050565b600260035403610ed6576040517f08c379a0000000000000000000000000000000000000000000000000000000008152600401610ecd90612db0565b60405180910390fd5b6002600381905550565b610f37610eed86866114a9565b83838080601f016020809104026020016040519081016040528093929190818152602001838380828437600081840152601f19601f82011690508083019250505050505050611506565b610f6d576040517f8baa579f00000000000000000000000000000000000000000000000000000000815260040160405180910390fd5b610f7986868686611554565b505050505050565b6001600381905550565b600073ffffffffffffffffffffffffffffffffffffffff168473ffffffffffffffffffffffffffffffffffffffff1603610ffa576040517f08c379a0000000000000000000000000000000000000000000000000000000008152600401610ff190612bb5565b60405180910390fd5b60006110046109f5565b9050600061101185611704565b9050600061101e85611704565b905061102e8389898585896112c2565b600080600088815260200190815260200160002060008a73ffffffffffffffffffffffffffffffffffffffff1673ffffffffffffffffffffffffffffffffffffffff168152602001908152602001600020549050858110156110c5576040517f08c379a00000000000000000000000000000000000000000000000000000000081526004016110bc90612c47565b60405180910390fd5b85810360008089815260200190815260200160002060008b73ffffffffffffffffffffffffffffffffffffffff1673ffffffffffffffffffffffffffffffffffffffff168152602001908152602001600020819055508560008089815260200190815260200160002060008a73ffffffffffffffffffffffffffffffffffffffff1673ffffffffffffffffffffffffffffffffffffffff168152602001908152602001600020600082825461117a9190612c67565b925050819055508773ffffffffffffffffffffffffffffffffffffffff168973ffffffffffffffffffffffffffffffffffffffff168573ffffffffffffffffffffffffffffffffffffffff167fc3d58168c5ae7397731d063d5bbf3d657854427343f4c083240f7aacaa2d0f628a8a6040516111f7929190612dd0565b60405180910390a461120d848a8a86868a6112ca565b61121b848a8a8a8a8a61177e565b505050505050505050565b60007f01ffc9a7000000000000000000000000000000000000000000000000000000007bffffffffffffffffffffffffffffffffffffffffffffffffffffffff1916827bffffffffffffffffffffffffffffffffffffffffffffffffffffffff1916149050919050565b600061129b336106bc565b156112af57601436033560601c90506112be565b6112b7611955565b90506112bf565b5b90565b505050505050565b505050505050565b6112f18473ffffffffffffffffffffffffffffffffffffffff1661195d565b156114a1578373ffffffffffffffffffffffffffffffffffffffff1663bc197c8187878686866040518663ffffffff1660e01b8152600401611337959493929190612e5d565b6020604051808303816000875af192505050801561137357506040513d601f19601f820116820180604052508101906113709190612eda565b60015b6114185761137f612f14565b806308c379a0036113db5750611393612f36565b8061139e57506113dd565b806040517f08c379a00000000000000000000000000000000000000000000000000000000081526004016113d2919061203e565b60405180910390fd5b505b6040517f08c379a000000000000000000000000000000000000000000000000000000000815260040161140f90613038565b60405180910390fd5b63bc197c8160e01b7bffffffffffffffffffffffffffffffffffffffffffffffffffffffff1916817bffffffffffffffffffffffffffffffffffffffffffffffffffffffff19161461149f576040517f08c379a0000000000000000000000000000000000000000000000000000000008152600401611496906130ca565b60405180910390fd5b505b505050505050565b60006114fe7f153155951f201a9cf305d129ebd1363ce73f9e70477efc0280da26ff0553d36584846040516020016114e393929190613103565b60405160208183030381529060405280519060200120611980565b905092915050565b600080611513848461199a565b90508073ffffffffffffffffffffffffffffffffffffffff166115346109f5565b73ffffffffffffffffffffffffffffffffffffffff161491505092915050565b600073ffffffffffffffffffffffffffffffffffffffff168473ffffffffffffffffffffffffffffffffffffffff16036115c3576040517f08c379a00000000000000000000000000000000000000000000000000000000081526004016115ba906131ac565b60405180910390fd5b60006115cd6109f5565b905060006115da85611704565b905060006115e785611704565b90506115f8836000898585896112c2565b8460008088815260200190815260200160002060008973ffffffffffffffffffffffffffffffffffffffff1673ffffffffffffffffffffffffffffffffffffffff16815260200190815260200160002060008282546116579190612c67565b925050819055508673ffffffffffffffffffffffffffffffffffffffff16600073ffffffffffffffffffffffffffffffffffffffff168473ffffffffffffffffffffffffffffffffffffffff167fc3d58168c5ae7397731d063d5bbf3d657854427343f4c083240f7aacaa2d0f6289896040516116d5929190612dd0565b60405180910390a46116ec836000898585896112ca565b6116fb8360008989898961177e565b50505050505050565b60606000600167ffffffffffffffff81111561172357611722612092565b5b6040519080825280602002602001820160405280156117515781602001602082028036833780820191505090505b509050828160008151811061176957611768612a0b565b5b60200260200101818152505080915050919050565b61179d8473ffffffffffffffffffffffffffffffffffffffff1661195d565b1561194d578373ffffffffffffffffffffffffffffffffffffffff1663f23a6e6187878686866040518663ffffffff1660e01b81526004016117e39594939291906131cc565b6020604051808303816000875af192505050801561181f57506040513d601f19601f8201168201806040525081019061181c9190612eda565b60015b6118c45761182b612f14565b806308c379a003611887575061183f612f36565b8061184a5750611889565b806040517f08c379a000000000000000000000000000000000000000000000000000000000815260040161187e919061203e565b60405180910390fd5b505b6040517f08c379a00000000000000000000000000000000000000000000000000000000081526004016118bb90613038565b60405180910390fd5b63f23a6e6160e01b7bffffffffffffffffffffffffffffffffffffffffffffffffffffffff1916817bffffffffffffffffffffffffffffffffffffffffffffffffffffffff19161461194b576040517f08c379a0000000000000000000000000000000000000000000000000000000008152600401611942906130ca565b60405180910390fd5b505b505050505050565b600033905090565b6000808273ffffffffffffffffffffffffffffffffffffffff163b119050919050565b600061199361198d6119c1565b83611adb565b9050919050565b60008060006119a98585611b0e565b915091506119b681611b5f565b819250505092915050565b60007f000000000000000000000000000000000000000000000000000000000000000073ffffffffffffffffffffffffffffffffffffffff163073ffffffffffffffffffffffffffffffffffffffff16148015611a3d57507f000000000000000000000000000000000000000000000000000000000000000046145b15611a6a577f00000000000000000000000000000000000000000000000000000000000000009050611ad8565b611ad57f00000000000000000000000000000000000000000000000000000000000000007f00000000000000000000000000000000000000000000000000000000000000007f0000000000000000000000000000000000000000000000000000000000000000611cc5565b90505b90565b60008282604051602001611af092919061329e565b60405160208183030381529060405280519060200120905092915050565b6000806041835103611b4f5760008060006020860151925060408601519150606086015160001a9050611b4387828585611cff565b94509450505050611b58565b60006002915091505b9250929050565b60006004811115611b7357611b726132d5565b5b816004811115611b8657611b856132d5565b5b0315611cc25760016004811115611ba057611b9f6132d5565b5b816004811115611bb357611bb26132d5565b5b03611bf3576040517f08c379a0000000000000000000000000000000000000000000000000000000008152600401611bea90613350565b60405180910390fd5b60026004811115611c0757611c066132d5565b5b816004811115611c1a57611c196132d5565b5b03611c5a576040517f08c379a0000000000000000000000000000000000000000000000000000000008152600401611c51906133bc565b60405180910390fd5b60036004811115611c6e57611c6d6132d5565b5b816004811115611c8157611c806132d5565b5b03611cc1576040517f08c379a0000000000000000000000000000000000000000000000000000000008152600401611cb89061344e565b60405180910390fd5b5b50565b60008383834630604051602001611ce095949392919061346e565b6040516020818303038152906040528051906020012090509392505050565b6000807f7fffffffffffffffffffffffffffffff5d576e7357a4501ddfe92f46681b20a08360001c1115611d3a576000600391509150611dd8565b600060018787878760405160008152602001604052604051611d5f94939291906134dd565b6020604051602081039080840390855afa158015611d81573d6000803e3d6000fd5b505050602060405103519050600073ffffffffffffffffffffffffffffffffffffffff168173ffffffffffffffffffffffffffffffffffffffff1603611dcf57600060019250925050611dd8565b80600092509250505b94509492505050565b6000604051905090565b600080fd5b600080fd5b600073ffffffffffffffffffffffffffffffffffffffff82169050919050565b6000611e2082611df5565b9050919050565b611e3081611e15565b8114611e3b57600080fd5b50565b600081359050611e4d81611e27565b92915050565b6000819050919050565b611e6681611e53565b8114611e7157600080fd5b50565b600081359050611e8381611e5d565b92915050565b60008060408385031215611ea057611e9f611deb565b5b6000611eae85828601611e3e565b9250506020611ebf85828601611e74565b9150509250929050565b611ed281611e53565b82525050565b6000602082019050611eed6000830184611ec9565b92915050565b60007fffffffff0000000000000000000000000000000000000000000000000000000082169050919050565b611f2881611ef3565b8114611f3357600080fd5b50565b600081359050611f4581611f1f565b92915050565b600060208284031215611f6157611f60611deb565b5b6000611f6f84828501611f36565b91505092915050565b60008115159050919050565b611f8d81611f78565b82525050565b6000602082019050611fa86000830184611f84565b92915050565b600081519050919050565b600082825260208201905092915050565b60005b83811015611fe8578082015181840152602081019050611fcd565b60008484015250505050565b6000601f19601f8301169050919050565b600061201082611fae565b61201a8185611fb9565b935061202a818560208601611fca565b61203381611ff4565b840191505092915050565b600060208201905081810360008301526120588184612005565b905092915050565b60006020828403121561207657612075611deb565b5b600061208484828501611e74565b91505092915050565b600080fd5b7f4e487b7100000000000000000000000000000000000000000000000000000000600052604160045260246000fd5b6120ca82611ff4565b810181811067ffffffffffffffff821117156120e9576120e8612092565b5b80604052505050565b60006120fc611de1565b905061210882826120c1565b919050565b600067ffffffffffffffff82111561212857612127612092565b5b602082029050602081019050919050565b600080fd5b600061215161214c8461210d565b6120f2565b9050808382526020820190506020840283018581111561217457612173612139565b5b835b8181101561219d57806121898882611e74565b845260208401935050602081019050612176565b5050509392505050565b600082601f8301126121bc576121bb61208d565b5b81356121cc84826020860161213e565b91505092915050565b600080fd5b600067ffffffffffffffff8211156121f5576121f4612092565b5b6121fe82611ff4565b9050602081019050919050565b82818337600083830152505050565b600061222d612228846121da565b6120f2565b905082815260208101848484011115612249576122486121d5565b5b61225484828561220b565b509392505050565b600082601f8301126122715761227061208d565b5b813561228184826020860161221a565b91505092915050565b600080600080600060a086880312156122a6576122a5611deb565b5b60006122b488828901611e3e565b95505060206122c588828901611e3e565b945050604086013567ffffffffffffffff8111156122e6576122e5611df0565b5b6122f2888289016121a7565b935050606086013567ffffffffffffffff81111561231357612312611df0565b5b61231f888289016121a7565b925050608086013567ffffffffffffffff8111156123405761233f611df0565b5b61234c8882890161225c565b9150509295509295909350565b600067ffffffffffffffff82111561237457612373612092565b5b602082029050602081019050919050565b600061239861239384612359565b6120f2565b905080838252602082019050602084028301858111156123bb576123ba612139565b5b835b818110156123e457806123d08882611e3e565b8452602084019350506020810190506123bd565b5050509392505050565b600082601f8301126124035761240261208d565b5b8135612413848260208601612385565b91505092915050565b6000806040838503121561243357612432611deb565b5b600083013567ffffffffffffffff81111561245157612450611df0565b5b61245d858286016123ee565b925050602083013567ffffffffffffffff81111561247e5761247d611df0565b5b61248a858286016121a7565b9150509250929050565b600081519050919050565b600082825260208201905092915050565b6000819050602082019050919050565b6124c981611e53565b82525050565b60006124db83836124c0565b60208301905092915050565b6000602082019050919050565b60006124ff82612494565b612509818561249f565b9350612514836124b0565b8060005b8381101561254557815161252c88826124cf565b9750612537836124e7565b925050600181019050612518565b5085935050505092915050565b6000602082019050818103600083015261256c81846124f4565b905092915050565b60006020828403121561258a57612589611deb565b5b600061259884828501611e3e565b91505092915050565b6125aa81611f78565b81146125b557600080fd5b50565b6000813590506125c7816125a1565b92915050565b600080604083850312156125e4576125e3611deb565b5b60006125f285828601611e3e565b9250506020612603858286016125b8565b9150509250929050565b6000806040838503121561262457612623611deb565b5b600061263285828601611e3e565b925050602061264385828601611e3e565b9150509250929050565b600080fd5b60008083601f8401126126685761266761208d565b5b8235905067ffffffffffffffff8111156126855761268461264d565b5b6020830191508360018202830111156126a1576126a0612139565b5b9250929050565b60008060008060008060a087890312156126c5576126c4611deb565b5b60006126d389828a01611e3e565b96505060206126e489828a01611e74565b95505060406126f589828a01611e74565b945050606087013567ffffffffffffffff81111561271657612715611df0565b5b61272289828a0161225c565b935050608087013567ffffffffffffffff81111561274357612742611df0565b5b61274f89828a01612652565b92509250509295509295509295565b600080600080600060a0868803121561277a57612779611deb565b5b600061278888828901611e3e565b955050602061279988828901611e3e565b94505060406127aa88828901611e74565b93505060606127bb88828901611e74565b925050608086013567ffffffffffffffff8111156127dc576127db611df0565b5b6127e88882890161225c565b9150509295509295909350565b7f455243313135353a2061646472657373207a65726f206973206e6f742061207660008201527f616c6964206f776e657200000000000000000000000000000000000000000000602082015250565b6000612851602a83611fb9565b915061285c826127f5565b604082019050919050565b6000602082019050818103600083015261288081612844565b9050919050565b7f4e487b7100000000000000000000000000000000000000000000000000000000600052602260045260246000fd5b600060028204905060018216806128ce57607f821691505b6020821081036128e1576128e0612887565b5b50919050565b7f455243313135353a2063616c6c6572206973206e6f7420746f6b656e206f776e60008201527f6572206f7220617070726f766564000000000000000000000000000000000000602082015250565b6000612943602e83611fb9565b915061294e826128e7565b604082019050919050565b6000602082019050818103600083015261297281612936565b9050919050565b7f455243313135353a206163636f756e747320616e6420696473206c656e67746860008201527f206d69736d617463680000000000000000000000000000000000000000000000602082015250565b60006129d5602983611fb9565b91506129e082612979565b604082019050919050565b60006020820190508181036000830152612a04816129c8565b9050919050565b7f4e487b7100000000000000000000000000000000000000000000000000000000600052603260045260246000fd5b7f4e487b7100000000000000000000000000000000000000000000000000000000600052601160045260246000fd5b6000612a7482611e53565b91507fffffffffffffffffffffffffffffffffffffffffffffffffffffffffffffffff8203612aa657612aa5612a3a565b5b600182019050919050565b7f455243313135353a2069647320616e6420616d6f756e7473206c656e6774682060008201527f6d69736d61746368000000000000000000000000000000000000000000000000602082015250565b6000612b0d602883611fb9565b9150612b1882612ab1565b604082019050919050565b60006020820190508181036000830152612b3c81612b00565b9050919050565b7f455243313135353a207472616e7366657220746f20746865207a65726f20616460008201527f6472657373000000000000000000000000000000000000000000000000000000602082015250565b6000612b9f602583611fb9565b9150612baa82612b43565b604082019050919050565b60006020820190508181036000830152612bce81612b92565b9050919050565b7f455243313135353a20696e73756666696369656e742062616c616e636520666f60008201527f72207472616e7366657200000000000000000000000000000000000000000000602082015250565b6000612c31602a83611fb9565b9150612c3c82612bd5565b604082019050919050565b60006020820190508181036000830152612c6081612c24565b9050919050565b6000612c7282611e53565b9150612c7d83611e53565b9250828201905080821115612c9557612c94612a3a565b5b92915050565b60006040820190508181036000830152612cb581856124f4565b90508181036020830152612cc981846124f4565b90509392505050565b7f455243313135353a2073657474696e6720617070726f76616c2073746174757360008201527f20666f722073656c660000000000000000000000000000000000000000000000602082015250565b6000612d2e602983611fb9565b9150612d3982612cd2565b604082019050919050565b60006020820190508181036000830152612d5d81612d21565b9050919050565b7f5265656e7472616e637947756172643a207265656e7472616e742063616c6c00600082015250565b6000612d9a601f83611fb9565b9150612da582612d64565b602082019050919050565b60006020820190508181036000830152612dc981612d8d565b9050919050565b6000604082019050612de56000830185611ec9565b612df26020830184611ec9565b9392505050565b612e0281611e15565b82525050565b600081519050919050565b600082825260208201905092915050565b6000612e2f82612e08565b612e398185612e13565b9350612e49818560208601611fca565b612e5281611ff4565b840191505092915050565b600060a082019050612e726000830188612df9565b612e7f6020830187612df9565b8181036040830152612e9181866124f4565b90508181036060830152612ea581856124f4565b90508181036080830152612eb98184612e24565b90509695505050505050565b600081519050612ed481611f1f565b92915050565b600060208284031215612ef057612eef611deb565b5b6000612efe84828501612ec5565b91505092915050565b60008160e01c9050919050565b600060033d1115612f335760046000803e612f30600051612f07565b90505b90565b600060443d10612fc357612f48611de1565b60043d036004823e80513d602482011167ffffffffffffffff82111715612f70575050612fc3565b808201805167ffffffffffffffff811115612f8e5750505050612fc3565b80602083010160043d038501811115612fab575050505050612fc3565b612fba826020018501866120c1565b82955050505050505b90565b7f455243313135353a207472616e7366657220746f206e6f6e2d4552433131353560008201527f526563656976657220696d706c656d656e746572000000000000000000000000602082015250565b6000613022603483611fb9565b915061302d82612fc6565b604082019050919050565b6000602082019050818103600083015261305181613015565b9050919050565b7f455243313135353a204552433131353552656365697665722072656a6563746560008201527f6420746f6b656e73000000000000000000000000000000000000000000000000602082015250565b60006130b4602883611fb9565b91506130bf82613058565b604082019050919050565b600060208201905081810360008301526130e3816130a7565b9050919050565b6000819050919050565b6130fd816130ea565b82525050565b600060608201905061311860008301866130f4565b6131256020830185611ec9565b6131326040830184611ec9565b949350505050565b7f455243313135353a206d696e7420746f20746865207a65726f2061646472657360008201527f7300000000000000000000000000000000000000000000000000000000000000602082015250565b6000613196602183611fb9565b91506131a18261313a565b604082019050919050565b600060208201905081810360008301526131c581613189565b9050919050565b600060a0820190506131e16000830188612df9565b6131ee6020830187612df9565b6131fb6040830186611ec9565b6132086060830185611ec9565b818103608083015261321a8184612e24565b90509695505050505050565b600081905092915050565b7f1901000000000000000000000000000000000000000000000000000000000000600082015250565b6000613267600283613226565b915061327282613231565b600282019050919050565b6000819050919050565b613298613293826130ea565b61327d565b82525050565b60006132a98261325a565b91506132b58285613287565b6020820191506132c58284613287565b6020820191508190509392505050565b7f4e487b7100000000000000000000000000000000000000000000000000000000600052602160045260246000fd5b7f45434453413a20696e76616c6964207369676e61747572650000000000000000600082015250565b600061333a601883611fb9565b915061334582613304565b602082019050919050565b600060208201905081810360008301526133698161332d565b9050919050565b7f45434453413a20696e76616c6964207369676e6174757265206c656e67746800600082015250565b60006133a6601f83611fb9565b91506133b182613370565b602082019050919050565b600060208201905081810360008301526133d581613399565b9050919050565b7f45434453413a20696e76616c6964207369676e6174757265202773272076616c60008201527f7565000000000000000000000000000000000000000000000000000000000000602082015250565b6000613438602283611fb9565b9150613443826133dc565b604082019050919050565b600060208201905081810360008301526134678161342b565b9050919050565b600060a08201905061348360008301886130f4565b61349060208301876130f4565b61349d60408301866130f4565b6134aa6060830185611ec9565b6134b76080830184612df9565b9695505050505050565b600060ff82169050919050565b6134d7816134c1565b82525050565b60006080820190506134f260008301876130f4565b6134ff60208301866134ce565b61350c60408301856130f4565b61351960608301846130f4565b9594505050505056fea26469706673582212209ba2c6724538c141664273d916af2ca1cc6a302c407d38bea9fbb5091d11ef0964736f6c63430008120033",
  "linkReferences": {},
  "deployedLinkReferences": {}
}