{
  "_format": "hh-sol-artifact-1",
  "contractName": "ERC1155MetaTx",
  "sourceName": "contracts/ERC1155MetaTx.sol",
  "abi": [
    {
      "inputs": [
        {
          "internalType": "contract MinimalForwarder",
          "name": "forwarder",
          "type": "address"
        },
        {
          "internalType": "string",
          "name": "_uri",
          "type": "string"
        },
        {
          "internalType": "string",
          "name": "_name",
          "type": "string"
        },
        {
          "internalType": "string",
          "name": "_symbol",
          "type": "string"
        }
      ],
      "stateMutability": "nonpayable",
      "type": "constructor"
    },
    {
      "inputs": [],
      "name": "InvalidSignature",
      "type": "error"
    },
    {
      "anonymous": false,
      "inputs": [
        {
          "indexed": true,
          "internalType": "address",
          "name": "account",
          "type": "address"
        },
        {
          "indexed": true,
          "internalType": "address",
          "name": "operator",
          "type": "address"
        },
        {
          "indexed": false,
          "internalType": "bool",
          "name": "approved",
          "type": "bool"
        }
      ],
      "name": "ApprovalForAll",
      "type": "event"
    },
    {
      "anonymous": false,
      "inputs": [
        {
          "indexed": true,
          "internalType": "bytes32",
          "name": "role",
          "type": "bytes32"
        },
        {
          "indexed": true,
          "internalType": "bytes32",
          "name": "previousAdminRole",
          "type": "bytes32"
        },
        {
          "indexed": true,
          "internalType": "bytes32",
          "name": "newAdminRole",
          "type": "bytes32"
        }
      ],
      "name": "RoleAdminChanged",
      "type": "event"
    },
    {
      "anonymous": false,
      "inputs": [
        {
          "indexed": true,
          "internalType": "bytes32",
          "name": "role",
          "type": "bytes32"
        },
        {
          "indexed": true,
          "internalType": "address",
          "name": "account",
          "type": "address"
        },
        {
          "indexed": true,
          "internalType": "address",
          "name": "sender",
          "type": "address"
        }
      ],
      "name": "RoleGranted",
      "type": "event"
    },
    {
      "anonymous": false,
      "inputs": [
        {
          "indexed": true,
          "internalType": "bytes32",
          "name": "role",
          "type": "bytes32"
        },
        {
          "indexed": true,
          "internalType": "address",
          "name": "account",
          "type": "address"
        },
        {
          "indexed": true,
          "internalType": "address",
          "name": "sender",
          "type": "address"
        }
      ],
      "name": "RoleRevoked",
      "type": "event"
    },
    {
      "anonymous": false,
      "inputs": [
        {
          "indexed": true,
          "internalType": "address",
          "name": "operator",
          "type": "address"
        },
        {
          "indexed": true,
          "internalType": "address",
          "name": "from",
          "type": "address"
        },
        {
          "indexed": true,
          "internalType": "address",
          "name": "to",
          "type": "address"
        },
        {
          "indexed": false,
          "internalType": "uint256[]",
          "name": "ids",
          "type": "uint256[]"
        },
        {
          "indexed": false,
          "internalType": "uint256[]",
          "name": "values",
          "type": "uint256[]"
        }
      ],
      "name": "TransferBatch",
      "type": "event"
    },
    {
      "anonymous": false,
      "inputs": [
        {
          "indexed": true,
          "internalType": "address",
          "name": "operator",
          "type": "address"
        },
        {
          "indexed": true,
          "internalType": "address",
          "name": "from",
          "type": "address"
        },
        {
          "indexed": true,
          "internalType": "address",
          "name": "to",
          "type": "address"
        },
        {
          "indexed": false,
          "internalType": "uint256",
          "name": "id",
          "type": "uint256"
        },
        {
          "indexed": false,
          "internalType": "uint256",
          "name": "value",
          "type": "uint256"
        }
      ],
      "name": "TransferSingle",
      "type": "event"
    },
    {
      "anonymous": false,
      "inputs": [
        {
          "indexed": false,
          "internalType": "string",
          "name": "value",
          "type": "string"
        },
        {
          "indexed": true,
          "internalType": "uint256",
          "name": "id",
          "type": "uint256"
        }
      ],
      "name": "URI",
      "type": "event"
    },
    {
      "inputs": [],
      "name": "DEFAULT_ADMIN_ROLE",
      "outputs": [
        {
          "internalType": "bytes32",
          "name": "",
          "type": "bytes32"
        }
      ],
      "stateMutability": "view",
      "type": "function"
    },
    {
      "inputs": [
        {
          "internalType": "address",
          "name": "account",
          "type": "address"
        },
        {
          "internalType": "uint256",
          "name": "id",
          "type": "uint256"
        }
      ],
      "name": "balanceOf",
      "outputs": [
        {
          "internalType": "uint256",
          "name": "",
          "type": "uint256"
        }
      ],
      "stateMutability": "view",
      "type": "function"
    },
    {
      "inputs": [
        {
          "internalType": "address[]",
          "name": "accounts",
          "type": "address[]"
        },
        {
          "internalType": "uint256[]",
          "name": "ids",
          "type": "uint256[]"
        }
      ],
      "name": "balanceOfBatch",
      "outputs": [
        {
          "internalType": "uint256[]",
          "name": "",
          "type": "uint256[]"
        }
      ],
      "stateMutability": "view",
      "type": "function"
    },
    {
      "inputs": [
        {
          "internalType": "bytes32",
          "name": "role",
          "type": "bytes32"
        }
      ],
      "name": "getRoleAdmin",
      "outputs": [
        {
          "internalType": "bytes32",
          "name": "",
          "type": "bytes32"
        }
      ],
      "stateMutability": "view",
      "type": "function"
    },
    {
      "inputs": [
        {
          "internalType": "bytes32",
          "name": "role",
          "type": "bytes32"
        },
        {
          "internalType": "address",
          "name": "account",
          "type": "address"
        }
      ],
      "name": "grantRole",
      "outputs": [],
      "stateMutability": "nonpayable",
      "type": "function"
    },
    {
      "inputs": [
        {
          "internalType": "bytes32",
          "name": "role",
          "type": "bytes32"
        },
        {
          "internalType": "address",
          "name": "account",
          "type": "address"
        }
      ],
      "name": "hasRole",
      "outputs": [
        {
          "internalType": "bool",
          "name": "",
          "type": "bool"
        }
      ],
      "stateMutability": "view",
      "type": "function"
    },
    {
      "inputs": [
        {
          "internalType": "address",
          "name": "account",
          "type": "address"
        },
        {
          "internalType": "address",
          "name": "operator",
          "type": "address"
        }
      ],
      "name": "isApprovedForAll",
      "outputs": [
        {
          "internalType": "bool",
          "name": "",
          "type": "bool"
        }
      ],
      "stateMutability": "view",
      "type": "function"
    },
    {
      "inputs": [
        {
          "internalType": "address",
          "name": "forwarder",
          "type": "address"
        }
      ],
      "name": "isTrustedForwarder",
      "outputs": [
        {
          "internalType": "bool",
          "name": "",
          "type": "bool"
        }
      ],
      "stateMutability": "view",
      "type": "function"
    },
    {
      "inputs": [],
      "name": "name",
      "outputs": [
        {
          "internalType": "string",
          "name": "",
          "type": "string"
        }
      ],
      "stateMutability": "view",
      "type": "function"
    },
    {
      "inputs": [
        {
          "internalType": "address",
          "name": "_account",
          "type": "address"
        },
        {
          "internalType": "uint256",
          "name": "_tokenId",
          "type": "uint256"
        },
        {
          "internalType": "uint256",
          "name": "_amount",
          "type": "uint256"
        },
        {
          "internalType": "bytes",
          "name": "_data",
          "type": "bytes"
        },
        {
          "internalType": "bytes",
          "name": "_signature",
          "type": "bytes"
        }
      ],
      "name": "redeem",
      "outputs": [],
      "stateMutability": "payable",
      "type": "function"
    },
    {
      "inputs": [
        {
          "internalType": "bytes32",
          "name": "role",
          "type": "bytes32"
        },
        {
          "internalType": "address",
          "name": "account",
          "type": "address"
        }
      ],
      "name": "renounceRole",
      "outputs": [],
      "stateMutability": "nonpayable",
      "type": "function"
    },
    {
      "inputs": [
        {
          "internalType": "bytes32",
          "name": "role",
          "type": "bytes32"
        },
        {
          "internalType": "address",
          "name": "account",
          "type": "address"
        }
      ],
      "name": "revokeRole",
      "outputs": [],
      "stateMutability": "nonpayable",
      "type": "function"
    },
    {
      "inputs": [
        {
          "internalType": "address",
          "name": "from",
          "type": "address"
        },
        {
          "internalType": "address",
          "name": "to",
          "type": "address"
        },
        {
          "internalType": "uint256[]",
          "name": "ids",
          "type": "uint256[]"
        },
        {
          "internalType": "uint256[]",
          "name": "amounts",
          "type": "uint256[]"
        },
        {
          "internalType": "bytes",
          "name": "data",
          "type": "bytes"
        }
      ],
      "name": "safeBatchTransferFrom",
      "outputs": [],
      "stateMutability": "nonpayable",
      "type": "function"
    },
    {
      "inputs": [
        {
          "internalType": "address",
          "name": "from",
          "type": "address"
        },
        {
          "internalType": "address",
          "name": "to",
          "type": "address"
        },
        {
          "internalType": "uint256",
          "name": "id",
          "type": "uint256"
        },
        {
          "internalType": "uint256",
          "name": "amount",
          "type": "uint256"
        },
        {
          "internalType": "bytes",
          "name": "data",
          "type": "bytes"
        }
      ],
      "name": "safeTransferFrom",
      "outputs": [],
      "stateMutability": "nonpayable",
      "type": "function"
    },
    {
      "inputs": [
        {
          "internalType": "address",
          "name": "operator",
          "type": "address"
        },
        {
          "internalType": "bool",
          "name": "approved",
          "type": "bool"
        }
      ],
      "name": "setApprovalForAll",
      "outputs": [],
      "stateMutability": "nonpayable",
      "type": "function"
    },
    {
      "inputs": [
        {
          "internalType": "bytes4",
          "name": "interfaceId",
          "type": "bytes4"
        }
      ],
      "name": "supportsInterface",
      "outputs": [
        {
          "internalType": "bool",
          "name": "",
          "type": "bool"
        }
      ],
      "stateMutability": "view",
      "type": "function"
    },
    {
      "inputs": [],
      "name": "symbol",
      "outputs": [
        {
          "internalType": "string",
          "name": "",
          "type": "string"
        }
      ],
      "stateMutability": "view",
      "type": "function"
    },
    {
      "inputs": [
        {
          "internalType": "uint256",
          "name": "",
          "type": "uint256"
        }
      ],
      "name": "uri",
      "outputs": [
        {
          "internalType": "string",
          "name": "",
          "type": "string"
        }
      ],
      "stateMutability": "view",
      "type": "function"
    }
  ],
  "bytecode": "0x6101606040523480156200001257600080fd5b5060405162004af638038062004af6833981810160405281019062000038919062000645565b6040518060400160405280600d81526020017f455243313135354d6574615478000000000000000000000000000000000000008152506040518060400160405280600581526020017f312e302e300000000000000000000000000000000000000000000000000000008152508585620000b781620001e360201b60201c565b508073ffffffffffffffffffffffffffffffffffffffff1660808173ffffffffffffffffffffffffffffffffffffffff16815250505060008280519060200120905060008280519060200120905060007f8b73c3c69bb8fe3d512ecc4cf759cc79239f7b179b0ffacaa9a75d522b39400f90508261010081815250508161012081815250504660c0818152505062000157818484620001f860201b60201c565b60a081815250503073ffffffffffffffffffffffffffffffffffffffff1660e08173ffffffffffffffffffffffffffffffffffffffff16815250508061014081815250505050505050620001b56000801b336200023460201b60201c565b8160049081620001c691906200095f565b508060059081620001d891906200095f565b505050505062000ae0565b8060029081620001f491906200095f565b5050565b600083838346306040516020016200021595949392919062000a83565b6040516020818303038152906040528051906020012090509392505050565b6200024682826200032660201b60201c565b620003225760016003600084815260200190815260200160002060000160008373ffffffffffffffffffffffffffffffffffffffff1673ffffffffffffffffffffffffffffffffffffffff16815260200190815260200160002060006101000a81548160ff021916908315150217905550620002c76200039160201b60201c565b73ffffffffffffffffffffffffffffffffffffffff168173ffffffffffffffffffffffffffffffffffffffff16837f2f8788117e7eff1d82e926ec794901d17c78024a50270940304540a733656f0d60405160405180910390a45b5050565b60006003600084815260200190815260200160002060000160008373ffffffffffffffffffffffffffffffffffffffff1673ffffffffffffffffffffffffffffffffffffffff16815260200190815260200160002060009054906101000a900460ff16905092915050565b6000620003a8620003ad60201b62000bdc1760201c565b905090565b6000620003c033620003f760201b60201c565b15620003d657601436033560601c9050620003f3565b620003eb6200043160201b62000c0e1760201c565b9050620003f4565b5b90565b600060805173ffffffffffffffffffffffffffffffffffffffff168273ffffffffffffffffffffffffffffffffffffffff16149050919050565b600033905090565b6000604051905090565b600080fd5b600080fd5b600073ffffffffffffffffffffffffffffffffffffffff82169050919050565b60006200047a826200044d565b9050919050565b60006200048e826200046d565b9050919050565b620004a08162000481565b8114620004ac57600080fd5b50565b600081519050620004c08162000495565b92915050565b600080fd5b600080fd5b6000601f19601f8301169050919050565b7f4e487b7100000000000000000000000000000000000000000000000000000000600052604160045260246000fd5b6200051b82620004d0565b810181811067ffffffffffffffff821117156200053d576200053c620004e1565b5b80604052505050565b60006200055262000439565b905062000560828262000510565b919050565b600067ffffffffffffffff821115620005835762000582620004e1565b5b6200058e82620004d0565b9050602081019050919050565b60005b83811015620005bb5780820151818401526020810190506200059e565b60008484015250505050565b6000620005de620005d88462000565565b62000546565b905082815260208101848484011115620005fd57620005fc620004cb565b5b6200060a8482856200059b565b509392505050565b600082601f8301126200062a5762000629620004c6565b5b81516200063c848260208601620005c7565b91505092915050565b6000806000806080858703121562000662576200066162000443565b5b60006200067287828801620004af565b945050602085015167ffffffffffffffff81111562000696576200069562000448565b5b620006a48782880162000612565b935050604085015167ffffffffffffffff811115620006c857620006c762000448565b5b620006d68782880162000612565b925050606085015167ffffffffffffffff811115620006fa57620006f962000448565b5b620007088782880162000612565b91505092959194509250565b600081519050919050565b7f4e487b7100000000000000000000000000000000000000000000000000000000600052602260045260246000fd5b600060028204905060018216806200076757607f821691505b6020821081036200077d576200077c6200071f565b5b50919050565b60008190508160005260206000209050919050565b60006020601f8301049050919050565b600082821b905092915050565b600060088302620007e77fffffffffffffffffffffffffffffffffffffffffffffffffffffffffffffffff82620007a8565b620007f38683620007a8565b95508019841693508086168417925050509392505050565b6000819050919050565b6000819050919050565b6000620008406200083a62000834846200080b565b62000815565b6200080b565b9050919050565b6000819050919050565b6200085c836200081f565b620008746200086b8262000847565b848454620007b5565b825550505050565b600090565b6200088b6200087c565b6200089881848462000851565b505050565b5b81811015620008c057620008b460008262000881565b6001810190506200089e565b5050565b601f8211156200090f57620008d98162000783565b620008e48462000798565b81016020851015620008f4578190505b6200090c620009038562000798565b8301826200089d565b50505b505050565b600082821c905092915050565b6000620009346000198460080262000914565b1980831691505092915050565b60006200094f838362000921565b9150826002028217905092915050565b6200096a8262000714565b67ffffffffffffffff811115620009865762000985620004e1565b5b6200099282546200074e565b6200099f828285620008c4565b600060209050601f831160018114620009d75760008415620009c2578287015190505b620009ce858262000941565b86555062000a3e565b601f198416620009e78662000783565b60005b8281101562000a1157848901518255600182019150602085019450602081019050620009ea565b8683101562000a31578489015162000a2d601f89168262000921565b8355505b6001600288020188555050505b505050505050565b6000819050919050565b62000a5b8162000a46565b82525050565b62000a6c816200080b565b82525050565b62000a7d816200046d565b82525050565b600060a08201905062000a9a600083018862000a50565b62000aa9602083018762000a50565b62000ab8604083018662000a50565b62000ac7606083018562000a61565b62000ad6608083018462000a72565b9695505050505050565b60805160a05160c05160e051610100516101205161014051613fbb62000b3b600039600061221e015260006122600152600061223f01526000612174015260006121ca015260006121f3015260006109060152613fbb6000f3fe6080604052600436106101085760003560e01c8063572b6c0511610095578063a22cb46511610064578063a22cb465146103b4578063d547741f146103dd578063e985e9c514610406578063eb4e5fe714610443578063f242432a1461045f57610108565b8063572b6c05146102e457806391d148541461032157806395d89b411461035e578063a217fddf1461038957610108565b8063248a9ca3116100dc578063248a9ca3146101ef5780632eb2c2d61461022c5780632f2ff15d1461025557806336568abe1461027e5780634e1273f4146102a757610108565b8062fdd58e1461010d57806301ffc9a71461014a57806306fdde03146101875780630e89341c146101b2575b600080fd5b34801561011957600080fd5b50610134600480360381019061012f9190612638565b610488565b6040516101419190612687565b60405180910390f35b34801561015657600080fd5b50610171600480360381019061016c91906126fa565b610550565b60405161017e9190612742565b60405180910390f35b34801561019357600080fd5b5061019c610562565b6040516101a991906127ed565b60405180910390f35b3480156101be57600080fd5b506101d960048036038101906101d4919061280f565b6105f0565b6040516101e691906127ed565b60405180910390f35b3480156101fb57600080fd5b5061021660048036038101906102119190612872565b610684565b60405161022391906128ae565b60405180910390f35b34801561023857600080fd5b50610253600480360381019061024e9190612ac6565b6106a4565b005b34801561026157600080fd5b5061027c60048036038101906102779190612b95565b610745565b005b34801561028a57600080fd5b506102a560048036038101906102a09190612b95565b610766565b005b3480156102b357600080fd5b506102ce60048036038101906102c99190612c98565b6107e9565b6040516102db9190612dce565b60405180910390f35b3480156102f057600080fd5b5061030b60048036038101906103069190612df0565b610902565b6040516103189190612742565b60405180910390f35b34801561032d57600080fd5b5061034860048036038101906103439190612b95565b61095a565b6040516103559190612742565b60405180910390f35b34801561036a57600080fd5b506103736109c5565b60405161038091906127ed565b60405180910390f35b34801561039557600080fd5b5061039e610a53565b6040516103ab91906128ae565b60405180910390f35b3480156103c057600080fd5b506103db60048036038101906103d69190612e49565b610a5a565b005b3480156103e957600080fd5b5061040460048036038101906103ff9190612b95565b610a70565b005b34801561041257600080fd5b5061042d60048036038101906104289190612e89565b610a91565b60405161043a9190612742565b60405180910390f35b61045d60048036038101906104589190612f24565b610b25565b005b34801561046b57600080fd5b5061048660048036038101906104819190612fda565b610b3b565b005b60008073ffffffffffffffffffffffffffffffffffffffff168373ffffffffffffffffffffffffffffffffffffffff16036104f8576040517f08c379a00000000000000000000000000000000000000000000000000000000081526004016104ef906130e3565b60405180910390fd5b60008083815260200190815260200160002060008473ffffffffffffffffffffffffffffffffffffffff1673ffffffffffffffffffffffffffffffffffffffff16815260200190815260200160002054905092915050565b600061055b82610c16565b9050919050565b6004805461056f90613132565b80601f016020809104026020016040519081016040528092919081815260200182805461059b90613132565b80156105e85780601f106105bd576101008083540402835291602001916105e8565b820191906000526020600020905b8154815290600101906020018083116105cb57829003601f168201915b505050505081565b6060600280546105ff90613132565b80601f016020809104026020016040519081016040528092919081815260200182805461062b90613132565b80156106785780601f1061064d57610100808354040283529160200191610678565b820191906000526020600020905b81548152906001019060200180831161065b57829003601f168201915b50505050509050919050565b600060036000838152602001908152602001600020600101549050919050565b6106ac610c90565b73ffffffffffffffffffffffffffffffffffffffff168573ffffffffffffffffffffffffffffffffffffffff1614806106f257506106f1856106ec610c90565b610a91565b5b610731576040517f08c379a0000000000000000000000000000000000000000000000000000000008152600401610728906131d5565b60405180910390fd5b61073e8585858585610c9f565b5050505050565b61074e82610684565b61075781610fc0565b6107618383610fd4565b505050565b61076e610c90565b73ffffffffffffffffffffffffffffffffffffffff168173ffffffffffffffffffffffffffffffffffffffff16146107db576040517f08c379a00000000000000000000000000000000000000000000000000000000081526004016107d290613267565b60405180910390fd5b6107e582826110b5565b5050565b6060815183511461082f576040517f08c379a0000000000000000000000000000000000000000000000000000000008152600401610826906132f9565b60405180910390fd5b6000835167ffffffffffffffff81111561084c5761084b6128ce565b5b60405190808252806020026020018201604052801561087a5781602001602082028036833780820191505090505b50905060005b84518110156108f7576108c785828151811061089f5761089e613319565b5b60200260200101518583815181106108ba576108b9613319565b5b6020026020010151610488565b8282815181106108da576108d9613319565b5b602002602001018181525050806108f090613377565b9050610880565b508091505092915050565b60007f000000000000000000000000000000000000000000000000000000000000000073ffffffffffffffffffffffffffffffffffffffff168273ffffffffffffffffffffffffffffffffffffffff16149050919050565b60006003600084815260200190815260200160002060000160008373ffffffffffffffffffffffffffffffffffffffff1673ffffffffffffffffffffffffffffffffffffffff16815260200190815260200160002060009054906101000a900460ff16905092915050565b600580546109d290613132565b80601f01602080910402602001604051908101604052809291908181526020018280546109fe90613132565b8015610a4b5780601f10610a2057610100808354040283529160200191610a4b565b820191906000526020600020905b815481529060010190602001808311610a2e57829003601f168201915b505050505081565b6000801b81565b610a6c610a65610c90565b8383611197565b5050565b610a7982610684565b610a8281610fc0565b610a8c83836110b5565b505050565b6000600160008473ffffffffffffffffffffffffffffffffffffffff1673ffffffffffffffffffffffffffffffffffffffff16815260200190815260200160002060008373ffffffffffffffffffffffffffffffffffffffff1673ffffffffffffffffffffffffffffffffffffffff16815260200190815260200160002060009054906101000a900460ff16905092915050565b610b33868686868686611303565b505050505050565b610b43610c90565b73ffffffffffffffffffffffffffffffffffffffff168573ffffffffffffffffffffffffffffffffffffffff161480610b895750610b8885610b83610c90565b610a91565b5b610bc8576040517f08c379a0000000000000000000000000000000000000000000000000000000008152600401610bbf906131d5565b60405180910390fd5b610bd585858585856113a4565b5050505050565b6000610be733610902565b15610bfb57601436033560601c9050610c0a565b610c03610c0e565b9050610c0b565b5b90565b600033905090565b60007f7965db0b000000000000000000000000000000000000000000000000000000007bffffffffffffffffffffffffffffffffffffffffffffffffffffffff1916827bffffffffffffffffffffffffffffffffffffffffffffffffffffffff19161480610c895750610c888261163f565b5b9050919050565b6000610c9a610bdc565b905090565b8151835114610ce3576040517f08c379a0000000000000000000000000000000000000000000000000000000008152600401610cda90613431565b60405180910390fd5b600073ffffffffffffffffffffffffffffffffffffffff168473ffffffffffffffffffffffffffffffffffffffff1603610d52576040517f08c379a0000000000000000000000000000000000000000000000000000000008152600401610d49906134c3565b60405180910390fd5b6000610d5c610c90565b9050610d6c818787878787611721565b60005b8451811015610f1d576000858281518110610d8d57610d8c613319565b5b602002602001015190506000858381518110610dac57610dab613319565b5b60200260200101519050600080600084815260200190815260200160002060008b73ffffffffffffffffffffffffffffffffffffffff1673ffffffffffffffffffffffffffffffffffffffff16815260200190815260200160002054905081811015610e4d576040517f08c379a0000000000000000000000000000000000000000000000000000000008152600401610e4490613555565b60405180910390fd5b81810360008085815260200190815260200160002060008c73ffffffffffffffffffffffffffffffffffffffff1673ffffffffffffffffffffffffffffffffffffffff168152602001908152602001600020819055508160008085815260200190815260200160002060008b73ffffffffffffffffffffffffffffffffffffffff1673ffffffffffffffffffffffffffffffffffffffff1681526020019081526020016000206000828254610f029190613575565b9250508190555050505080610f1690613377565b9050610d6f565b508473ffffffffffffffffffffffffffffffffffffffff168673ffffffffffffffffffffffffffffffffffffffff168273ffffffffffffffffffffffffffffffffffffffff167f4a39dc06d4c0dbc64b70af90fd698a233a518aa5d07e595d983b8c0526c8f7fb8787604051610f949291906135a9565b60405180910390a4610faa818787878787611729565b610fb8818787878787611731565b505050505050565b610fd181610fcc610c90565b611908565b50565b610fde828261095a565b6110b15760016003600084815260200190815260200160002060000160008373ffffffffffffffffffffffffffffffffffffffff1673ffffffffffffffffffffffffffffffffffffffff16815260200190815260200160002060006101000a81548160ff021916908315150217905550611056610c90565b73ffffffffffffffffffffffffffffffffffffffff168173ffffffffffffffffffffffffffffffffffffffff16837f2f8788117e7eff1d82e926ec794901d17c78024a50270940304540a733656f0d60405160405180910390a45b5050565b6110bf828261095a565b156111935760006003600084815260200190815260200160002060000160008373ffffffffffffffffffffffffffffffffffffffff1673ffffffffffffffffffffffffffffffffffffffff16815260200190815260200160002060006101000a81548160ff021916908315150217905550611138610c90565b73ffffffffffffffffffffffffffffffffffffffff168173ffffffffffffffffffffffffffffffffffffffff16837ff6391f5c32d9c69d2a47ea670b442974b53935d1edc7fd64eb21e047a839171b60405160405180910390a45b5050565b8173ffffffffffffffffffffffffffffffffffffffff168373ffffffffffffffffffffffffffffffffffffffff1603611205576040517f08c379a00000000000000000000000000000000000000000000000000000000081526004016111fc90613652565b60405180910390fd5b80600160008573ffffffffffffffffffffffffffffffffffffffff1673ffffffffffffffffffffffffffffffffffffffff16815260200190815260200160002060008473ffffffffffffffffffffffffffffffffffffffff1673ffffffffffffffffffffffffffffffffffffffff16815260200190815260200160002060006101000a81548160ff0219169083151502179055508173ffffffffffffffffffffffffffffffffffffffff168373ffffffffffffffffffffffffffffffffffffffff167f17307eab39ab6107e8899845ad3d59bd9653f200f220920489ca2b5937696c31836040516112f69190612742565b60405180910390a3505050565b61135a611310868661198d565b83838080601f016020809104026020016040519081016040528093929190818152602001838380828437600081840152601f19601f820116905080830192505050505050506119ea565b611390576040517f8baa579f00000000000000000000000000000000000000000000000000000000815260040160405180910390fd5b61139c86868686611a38565b505050505050565b600073ffffffffffffffffffffffffffffffffffffffff168473ffffffffffffffffffffffffffffffffffffffff1603611413576040517f08c379a000000000000000000000000000000000000000000000000000000000815260040161140a906134c3565b60405180910390fd5b600061141d610c90565b9050600061142a85611be8565b9050600061143785611be8565b9050611447838989858589611721565b600080600088815260200190815260200160002060008a73ffffffffffffffffffffffffffffffffffffffff1673ffffffffffffffffffffffffffffffffffffffff168152602001908152602001600020549050858110156114de576040517f08c379a00000000000000000000000000000000000000000000000000000000081526004016114d590613555565b60405180910390fd5b85810360008089815260200190815260200160002060008b73ffffffffffffffffffffffffffffffffffffffff1673ffffffffffffffffffffffffffffffffffffffff168152602001908152602001600020819055508560008089815260200190815260200160002060008a73ffffffffffffffffffffffffffffffffffffffff1673ffffffffffffffffffffffffffffffffffffffff16815260200190815260200160002060008282546115939190613575565b925050819055508773ffffffffffffffffffffffffffffffffffffffff168973ffffffffffffffffffffffffffffffffffffffff168573ffffffffffffffffffffffffffffffffffffffff167fc3d58168c5ae7397731d063d5bbf3d657854427343f4c083240f7aacaa2d0f628a8a604051611610929190613672565b60405180910390a4611626848a8a86868a611729565b611634848a8a8a8a8a611c62565b505050505050505050565b60007fd9b67a26000000000000000000000000000000000000000000000000000000007bffffffffffffffffffffffffffffffffffffffffffffffffffffffff1916827bffffffffffffffffffffffffffffffffffffffffffffffffffffffff1916148061170a57507f0e89341c000000000000000000000000000000000000000000000000000000007bffffffffffffffffffffffffffffffffffffffffffffffffffffffff1916827bffffffffffffffffffffffffffffffffffffffffffffffffffffffff1916145b8061171a575061171982611e39565b5b9050919050565b505050505050565b505050505050565b6117508473ffffffffffffffffffffffffffffffffffffffff16611ea3565b15611900578373ffffffffffffffffffffffffffffffffffffffff1663bc197c8187878686866040518663ffffffff1660e01b81526004016117969594939291906136ff565b6020604051808303816000875af19250505080156117d257506040513d601f19601f820116820180604052508101906117cf919061377c565b60015b611877576117de6137b6565b806308c379a00361183a57506117f26137d8565b806117fd575061183c565b806040517f08c379a000000000000000000000000000000000000000000000000000000000815260040161183191906127ed565b60405180910390fd5b505b6040517f08c379a000000000000000000000000000000000000000000000000000000000815260040161186e906138da565b60405180910390fd5b63bc197c8160e01b7bffffffffffffffffffffffffffffffffffffffffffffffffffffffff1916817bffffffffffffffffffffffffffffffffffffffffffffffffffffffff1916146118fe576040517f08c379a00000000000000000000000000000000000000000000000000000000081526004016118f59061396c565b60405180910390fd5b505b505050505050565b611912828261095a565b6119895761191f81611ec6565b61192d8360001c6020611ef3565b60405160200161193e929190613a60565b6040516020818303038152906040526040517f08c379a000000000000000000000000000000000000000000000000000000000815260040161198091906127ed565b60405180910390fd5b5050565b60006119e27f153155951f201a9cf305d129ebd1363ce73f9e70477efc0280da26ff0553d36584846040516020016119c793929190613a9a565b6040516020818303038152906040528051906020012061212f565b905092915050565b6000806119f78484612149565b90508073ffffffffffffffffffffffffffffffffffffffff16611a18610c90565b73ffffffffffffffffffffffffffffffffffffffff161491505092915050565b600073ffffffffffffffffffffffffffffffffffffffff168473ffffffffffffffffffffffffffffffffffffffff1603611aa7576040517f08c379a0000000000000000000000000000000000000000000000000000000008152600401611a9e90613b43565b60405180910390fd5b6000611ab1610c90565b90506000611abe85611be8565b90506000611acb85611be8565b9050611adc83600089858589611721565b8460008088815260200190815260200160002060008973ffffffffffffffffffffffffffffffffffffffff1673ffffffffffffffffffffffffffffffffffffffff1681526020019081526020016000206000828254611b3b9190613575565b925050819055508673ffffffffffffffffffffffffffffffffffffffff16600073ffffffffffffffffffffffffffffffffffffffff168473ffffffffffffffffffffffffffffffffffffffff167fc3d58168c5ae7397731d063d5bbf3d657854427343f4c083240f7aacaa2d0f628989604051611bb9929190613672565b60405180910390a4611bd083600089858589611729565b611bdf83600089898989611c62565b50505050505050565b60606000600167ffffffffffffffff811115611c0757611c066128ce565b5b604051908082528060200260200182016040528015611c355781602001602082028036833780820191505090505b5090508281600081518110611c4d57611c4c613319565b5b60200260200101818152505080915050919050565b611c818473ffffffffffffffffffffffffffffffffffffffff16611ea3565b15611e31578373ffffffffffffffffffffffffffffffffffffffff1663f23a6e6187878686866040518663ffffffff1660e01b8152600401611cc7959493929190613b63565b6020604051808303816000875af1925050508015611d0357506040513d601f19601f82011682018060405250810190611d00919061377c565b60015b611da857611d0f6137b6565b806308c379a003611d6b5750611d236137d8565b80611d2e5750611d6d565b806040517f08c379a0000000000000000000000000000000000000000000000000000000008152600401611d6291906127ed565b60405180910390fd5b505b6040517f08c379a0000000000000000000000000000000000000000000000000000000008152600401611d9f906138da565b60405180910390fd5b63f23a6e6160e01b7bffffffffffffffffffffffffffffffffffffffffffffffffffffffff1916817bffffffffffffffffffffffffffffffffffffffffffffffffffffffff191614611e2f576040517f08c379a0000000000000000000000000000000000000000000000000000000008152600401611e269061396c565b60405180910390fd5b505b505050505050565b60007f01ffc9a7000000000000000000000000000000000000000000000000000000007bffffffffffffffffffffffffffffffffffffffffffffffffffffffff1916827bffffffffffffffffffffffffffffffffffffffffffffffffffffffff1916149050919050565b6000808273ffffffffffffffffffffffffffffffffffffffff163b119050919050565b6060611eec8273ffffffffffffffffffffffffffffffffffffffff16601460ff16611ef3565b9050919050565b606060006002836002611f069190613bbd565b611f109190613575565b67ffffffffffffffff811115611f2957611f286128ce565b5b6040519080825280601f01601f191660200182016040528015611f5b5781602001600182028036833780820191505090505b5090507f300000000000000000000000000000000000000000000000000000000000000081600081518110611f9357611f92613319565b5b60200101907effffffffffffffffffffffffffffffffffffffffffffffffffffffffffffff1916908160001a9053507f780000000000000000000000000000000000000000000000000000000000000081600181518110611ff757611ff6613319565b5b60200101907effffffffffffffffffffffffffffffffffffffffffffffffffffffffffffff1916908160001a905350600060018460026120379190613bbd565b6120419190613575565b90505b60018111156120e1577f3031323334353637383961626364656600000000000000000000000000000000600f86166010811061208357612082613319565b5b1a60f81b82828151811061209a57612099613319565b5b60200101907effffffffffffffffffffffffffffffffffffffffffffffffffffffffffffff1916908160001a905350600485901c9450806120da90613bff565b9050612044565b5060008414612125576040517f08c379a000000000000000000000000000000000000000000000000000000000815260040161211c90613c74565b60405180910390fd5b8091505092915050565b600061214261213c612170565b8361228a565b9050919050565b600080600061215885856122bd565b915091506121658161230e565b819250505092915050565b60007f000000000000000000000000000000000000000000000000000000000000000073ffffffffffffffffffffffffffffffffffffffff163073ffffffffffffffffffffffffffffffffffffffff161480156121ec57507f000000000000000000000000000000000000000000000000000000000000000046145b15612219577f00000000000000000000000000000000000000000000000000000000000000009050612287565b6122847f00000000000000000000000000000000000000000000000000000000000000007f00000000000000000000000000000000000000000000000000000000000000007f0000000000000000000000000000000000000000000000000000000000000000612474565b90505b90565b6000828260405160200161229f929190613d01565b60405160208183030381529060405280519060200120905092915050565b60008060418351036122fe5760008060006020860151925060408601519150606086015160001a90506122f2878285856124ae565b94509450505050612307565b60006002915091505b9250929050565b6000600481111561232257612321613d38565b5b81600481111561233557612334613d38565b5b0315612471576001600481111561234f5761234e613d38565b5b81600481111561236257612361613d38565b5b036123a2576040517f08c379a000000000000000000000000000000000000000000000000000000000815260040161239990613db3565b60405180910390fd5b600260048111156123b6576123b5613d38565b5b8160048111156123c9576123c8613d38565b5b03612409576040517f08c379a000000000000000000000000000000000000000000000000000000000815260040161240090613e1f565b60405180910390fd5b6003600481111561241d5761241c613d38565b5b8160048111156124305761242f613d38565b5b03612470576040517f08c379a000000000000000000000000000000000000000000000000000000000815260040161246790613eb1565b60405180910390fd5b5b50565b6000838383463060405160200161248f959493929190613ed1565b6040516020818303038152906040528051906020012090509392505050565b6000807f7fffffffffffffffffffffffffffffff5d576e7357a4501ddfe92f46681b20a08360001c11156124e9576000600391509150612587565b60006001878787876040516000815260200160405260405161250e9493929190613f40565b6020604051602081039080840390855afa158015612530573d6000803e3d6000fd5b505050602060405103519050600073ffffffffffffffffffffffffffffffffffffffff168173ffffffffffffffffffffffffffffffffffffffff160361257e57600060019250925050612587565b80600092509250505b94509492505050565b6000604051905090565b600080fd5b600080fd5b600073ffffffffffffffffffffffffffffffffffffffff82169050919050565b60006125cf826125a4565b9050919050565b6125df816125c4565b81146125ea57600080fd5b50565b6000813590506125fc816125d6565b92915050565b6000819050919050565b61261581612602565b811461262057600080fd5b50565b6000813590506126328161260c565b92915050565b6000806040838503121561264f5761264e61259a565b5b600061265d858286016125ed565b925050602061266e85828601612623565b9150509250929050565b61268181612602565b82525050565b600060208201905061269c6000830184612678565b92915050565b60007fffffffff0000000000000000000000000000000000000000000000000000000082169050919050565b6126d7816126a2565b81146126e257600080fd5b50565b6000813590506126f4816126ce565b92915050565b6000602082840312156127105761270f61259a565b5b600061271e848285016126e5565b91505092915050565b60008115159050919050565b61273c81612727565b82525050565b60006020820190506127576000830184612733565b92915050565b600081519050919050565b600082825260208201905092915050565b60005b8381101561279757808201518184015260208101905061277c565b60008484015250505050565b6000601f19601f8301169050919050565b60006127bf8261275d565b6127c98185612768565b93506127d9818560208601612779565b6127e2816127a3565b840191505092915050565b6000602082019050818103600083015261280781846127b4565b905092915050565b6000602082840312156128255761282461259a565b5b600061283384828501612623565b91505092915050565b6000819050919050565b61284f8161283c565b811461285a57600080fd5b50565b60008135905061286c81612846565b92915050565b6000602082840312156128885761288761259a565b5b60006128968482850161285d565b91505092915050565b6128a88161283c565b82525050565b60006020820190506128c3600083018461289f565b92915050565b600080fd5b7f4e487b7100000000000000000000000000000000000000000000000000000000600052604160045260246000fd5b612906826127a3565b810181811067ffffffffffffffff82111715612925576129246128ce565b5b80604052505050565b6000612938612590565b905061294482826128fd565b919050565b600067ffffffffffffffff821115612964576129636128ce565b5b602082029050602081019050919050565b600080fd5b600061298d61298884612949565b61292e565b905080838252602082019050602084028301858111156129b0576129af612975565b5b835b818110156129d957806129c58882612623565b8452602084019350506020810190506129b2565b5050509392505050565b600082601f8301126129f8576129f76128c9565b5b8135612a0884826020860161297a565b91505092915050565b600080fd5b600067ffffffffffffffff821115612a3157612a306128ce565b5b612a3a826127a3565b9050602081019050919050565b82818337600083830152505050565b6000612a69612a6484612a16565b61292e565b905082815260208101848484011115612a8557612a84612a11565b5b612a90848285612a47565b509392505050565b600082601f830112612aad57612aac6128c9565b5b8135612abd848260208601612a56565b91505092915050565b600080600080600060a08688031215612ae257612ae161259a565b5b6000612af0888289016125ed565b9550506020612b01888289016125ed565b945050604086013567ffffffffffffffff811115612b2257612b2161259f565b5b612b2e888289016129e3565b935050606086013567ffffffffffffffff811115612b4f57612b4e61259f565b5b612b5b888289016129e3565b925050608086013567ffffffffffffffff811115612b7c57612b7b61259f565b5b612b8888828901612a98565b9150509295509295909350565b60008060408385031215612bac57612bab61259a565b5b6000612bba8582860161285d565b9250506020612bcb858286016125ed565b9150509250929050565b600067ffffffffffffffff821115612bf057612bef6128ce565b5b602082029050602081019050919050565b6000612c14612c0f84612bd5565b61292e565b90508083825260208201905060208402830185811115612c3757612c36612975565b5b835b81811015612c605780612c4c88826125ed565b845260208401935050602081019050612c39565b5050509392505050565b600082601f830112612c7f57612c7e6128c9565b5b8135612c8f848260208601612c01565b91505092915050565b60008060408385031215612caf57612cae61259a565b5b600083013567ffffffffffffffff811115612ccd57612ccc61259f565b5b612cd985828601612c6a565b925050602083013567ffffffffffffffff811115612cfa57612cf961259f565b5b612d06858286016129e3565b9150509250929050565b600081519050919050565b600082825260208201905092915050565b6000819050602082019050919050565b612d4581612602565b82525050565b6000612d578383612d3c565b60208301905092915050565b6000602082019050919050565b6000612d7b82612d10565b612d858185612d1b565b9350612d9083612d2c565b8060005b83811015612dc1578151612da88882612d4b565b9750612db383612d63565b925050600181019050612d94565b5085935050505092915050565b60006020820190508181036000830152612de88184612d70565b905092915050565b600060208284031215612e0657612e0561259a565b5b6000612e14848285016125ed565b91505092915050565b612e2681612727565b8114612e3157600080fd5b50565b600081359050612e4381612e1d565b92915050565b60008060408385031215612e6057612e5f61259a565b5b6000612e6e858286016125ed565b9250506020612e7f85828601612e34565b9150509250929050565b60008060408385031215612ea057612e9f61259a565b5b6000612eae858286016125ed565b9250506020612ebf858286016125ed565b9150509250929050565b600080fd5b60008083601f840112612ee457612ee36128c9565b5b8235905067ffffffffffffffff811115612f0157612f00612ec9565b5b602083019150836001820283011115612f1d57612f1c612975565b5b9250929050565b60008060008060008060a08789031215612f4157612f4061259a565b5b6000612f4f89828a016125ed565b9650506020612f6089828a01612623565b9550506040612f7189828a01612623565b945050606087013567ffffffffffffffff811115612f9257612f9161259f565b5b612f9e89828a01612a98565b935050608087013567ffffffffffffffff811115612fbf57612fbe61259f565b5b612fcb89828a01612ece565b92509250509295509295509295565b600080600080600060a08688031215612ff657612ff561259a565b5b6000613004888289016125ed565b9550506020613015888289016125ed565b945050604061302688828901612623565b935050606061303788828901612623565b925050608086013567ffffffffffffffff8111156130585761305761259f565b5b61306488828901612a98565b9150509295509295909350565b7f455243313135353a2061646472657373207a65726f206973206e6f742061207660008201527f616c6964206f776e657200000000000000000000000000000000000000000000602082015250565b60006130cd602a83612768565b91506130d882613071565b604082019050919050565b600060208201905081810360008301526130fc816130c0565b9050919050565b7f4e487b7100000000000000000000000000000000000000000000000000000000600052602260045260246000fd5b6000600282049050600182168061314a57607f821691505b60208210810361315d5761315c613103565b5b50919050565b7f455243313135353a2063616c6c6572206973206e6f7420746f6b656e206f776e60008201527f6572206f7220617070726f766564000000000000000000000000000000000000602082015250565b60006131bf602e83612768565b91506131ca82613163565b604082019050919050565b600060208201905081810360008301526131ee816131b2565b9050919050565b7f416363657373436f6e74726f6c3a2063616e206f6e6c792072656e6f756e636560008201527f20726f6c657320666f722073656c660000000000000000000000000000000000602082015250565b6000613251602f83612768565b915061325c826131f5565b604082019050919050565b6000602082019050818103600083015261328081613244565b9050919050565b7f455243313135353a206163636f756e747320616e6420696473206c656e67746860008201527f206d69736d617463680000000000000000000000000000000000000000000000602082015250565b60006132e3602983612768565b91506132ee82613287565b604082019050919050565b60006020820190508181036000830152613312816132d6565b9050919050565b7f4e487b7100000000000000000000000000000000000000000000000000000000600052603260045260246000fd5b7f4e487b7100000000000000000000000000000000000000000000000000000000600052601160045260246000fd5b600061338282612602565b91507fffffffffffffffffffffffffffffffffffffffffffffffffffffffffffffffff82036133b4576133b3613348565b5b600182019050919050565b7f455243313135353a2069647320616e6420616d6f756e7473206c656e6774682060008201527f6d69736d61746368000000000000000000000000000000000000000000000000602082015250565b600061341b602883612768565b9150613426826133bf565b604082019050919050565b6000602082019050818103600083015261344a8161340e565b9050919050565b7f455243313135353a207472616e7366657220746f20746865207a65726f20616460008201527f6472657373000000000000000000000000000000000000000000000000000000602082015250565b60006134ad602583612768565b91506134b882613451565b604082019050919050565b600060208201905081810360008301526134dc816134a0565b9050919050565b7f455243313135353a20696e73756666696369656e742062616c616e636520666f60008201527f72207472616e7366657200000000000000000000000000000000000000000000602082015250565b600061353f602a83612768565b915061354a826134e3565b604082019050919050565b6000602082019050818103600083015261356e81613532565b9050919050565b600061358082612602565b915061358b83612602565b92508282019050808211156135a3576135a2613348565b5b92915050565b600060408201905081810360008301526135c38185612d70565b905081810360208301526135d78184612d70565b90509392505050565b7f455243313135353a2073657474696e6720617070726f76616c2073746174757360008201527f20666f722073656c660000000000000000000000000000000000000000000000602082015250565b600061363c602983612768565b9150613647826135e0565b604082019050919050565b6000602082019050818103600083015261366b8161362f565b9050919050565b60006040820190506136876000830185612678565b6136946020830184612678565b9392505050565b6136a4816125c4565b82525050565b600081519050919050565b600082825260208201905092915050565b60006136d1826136aa565b6136db81856136b5565b93506136eb818560208601612779565b6136f4816127a3565b840191505092915050565b600060a082019050613714600083018861369b565b613721602083018761369b565b81810360408301526137338186612d70565b905081810360608301526137478185612d70565b9050818103608083015261375b81846136c6565b90509695505050505050565b600081519050613776816126ce565b92915050565b6000602082840312156137925761379161259a565b5b60006137a084828501613767565b91505092915050565b60008160e01c9050919050565b600060033d11156137d55760046000803e6137d26000516137a9565b90505b90565b600060443d10613865576137ea612590565b60043d036004823e80513d602482011167ffffffffffffffff82111715613812575050613865565b808201805167ffffffffffffffff8111156138305750505050613865565b80602083010160043d03850181111561384d575050505050613865565b61385c826020018501866128fd565b82955050505050505b90565b7f455243313135353a207472616e7366657220746f206e6f6e2d4552433131353560008201527f526563656976657220696d706c656d656e746572000000000000000000000000602082015250565b60006138c4603483612768565b91506138cf82613868565b604082019050919050565b600060208201905081810360008301526138f3816138b7565b9050919050565b7f455243313135353a204552433131353552656365697665722072656a6563746560008201527f6420746f6b656e73000000000000000000000000000000000000000000000000602082015250565b6000613956602883612768565b9150613961826138fa565b604082019050919050565b6000602082019050818103600083015261398581613949565b9050919050565b600081905092915050565b7f416363657373436f6e74726f6c3a206163636f756e7420000000000000000000600082015250565b60006139cd60178361398c565b91506139d882613997565b601782019050919050565b60006139ee8261275d565b6139f8818561398c565b9350613a08818560208601612779565b80840191505092915050565b7f206973206d697373696e6720726f6c6520000000000000000000000000000000600082015250565b6000613a4a60118361398c565b9150613a5582613a14565b601182019050919050565b6000613a6b826139c0565b9150613a7782856139e3565b9150613a8282613a3d565b9150613a8e82846139e3565b91508190509392505050565b6000606082019050613aaf600083018661289f565b613abc6020830185612678565b613ac96040830184612678565b949350505050565b7f455243313135353a206d696e7420746f20746865207a65726f2061646472657360008201527f7300000000000000000000000000000000000000000000000000000000000000602082015250565b6000613b2d602183612768565b9150613b3882613ad1565b604082019050919050565b60006020820190508181036000830152613b5c81613b20565b9050919050565b600060a082019050613b78600083018861369b565b613b85602083018761369b565b613b926040830186612678565b613b9f6060830185612678565b8181036080830152613bb181846136c6565b90509695505050505050565b6000613bc882612602565b9150613bd383612602565b9250828202613be181612602565b91508282048414831517613bf857613bf7613348565b5b5092915050565b6000613c0a82612602565b915060008203613c1d57613c1c613348565b5b600182039050919050565b7f537472696e67733a20686578206c656e67746820696e73756666696369656e74600082015250565b6000613c5e602083612768565b9150613c6982613c28565b602082019050919050565b60006020820190508181036000830152613c8d81613c51565b9050919050565b7f1901000000000000000000000000000000000000000000000000000000000000600082015250565b6000613cca60028361398c565b9150613cd582613c94565b600282019050919050565b6000819050919050565b613cfb613cf68261283c565b613ce0565b82525050565b6000613d0c82613cbd565b9150613d188285613cea565b602082019150613d288284613cea565b6020820191508190509392505050565b7f4e487b7100000000000000000000000000000000000000000000000000000000600052602160045260246000fd5b7f45434453413a20696e76616c6964207369676e61747572650000000000000000600082015250565b6000613d9d601883612768565b9150613da882613d67565b602082019050919050565b60006020820190508181036000830152613dcc81613d90565b9050919050565b7f45434453413a20696e76616c6964207369676e6174757265206c656e67746800600082015250565b6000613e09601f83612768565b9150613e1482613dd3565b602082019050919050565b60006020820190508181036000830152613e3881613dfc565b9050919050565b7f45434453413a20696e76616c6964207369676e6174757265202773272076616c60008201527f7565000000000000000000000000000000000000000000000000000000000000602082015250565b6000613e9b602283612768565b9150613ea682613e3f565b604082019050919050565b60006020820190508181036000830152613eca81613e8e565b9050919050565b600060a082019050613ee6600083018861289f565b613ef3602083018761289f565b613f00604083018661289f565b613f0d6060830185612678565b613f1a608083018461369b565b9695505050505050565b600060ff82169050919050565b613f3a81613f24565b82525050565b6000608082019050613f55600083018761289f565b613f626020830186613f31565b613f6f604083018561289f565b613f7c606083018461289f565b9594505050505056fea26469706673582212204cc71e7b44666b3cbccad70900c8e51205b4ce814250d9fc2d0cc0e85826aa0a64736f6c63430008120033",
  "linkReferences": {},
  "deployedLinkReferences": {}
}