{
  "_format": "hh-sol-artifact-1",
  "contractName": "ERC1155MetaTx",
  "sourceName": "contracts/ERC1155MetaTx.sol",
  "abi": [
    {
      "inputs": [
        {
          "internalType": "contract MinimalForwarder",
          "name": "forwarder",
          "type": "address"
        },
        {
          "internalType": "string",
          "name": "_uri",
          "type": "string"
        },
        {
          "internalType": "string",
          "name": "_name",
          "type": "string"
        },
        {
          "internalType": "string",
          "name": "_symbol",
          "type": "string"
        }
      ],
      "stateMutability": "nonpayable",
      "type": "constructor"
    },
    {
      "inputs": [],
      "name": "InvalidSignature",
      "type": "error"
    },
    {
      "anonymous": false,
      "inputs": [
        {
          "indexed": true,
          "internalType": "address",
          "name": "account",
          "type": "address"
        },
        {
          "indexed": true,
          "internalType": "address",
          "name": "operator",
          "type": "address"
        },
        {
          "indexed": false,
          "internalType": "bool",
          "name": "approved",
          "type": "bool"
        }
      ],
      "name": "ApprovalForAll",
      "type": "event"
    },
    {
      "anonymous": false,
      "inputs": [
        {
          "indexed": true,
          "internalType": "address",
          "name": "operator",
          "type": "address"
        },
        {
          "indexed": true,
          "internalType": "address",
          "name": "from",
          "type": "address"
        },
        {
          "indexed": true,
          "internalType": "address",
          "name": "to",
          "type": "address"
        },
        {
          "indexed": false,
          "internalType": "uint256[]",
          "name": "ids",
          "type": "uint256[]"
        },
        {
          "indexed": false,
          "internalType": "uint256[]",
          "name": "values",
          "type": "uint256[]"
        }
      ],
      "name": "TransferBatch",
      "type": "event"
    },
    {
      "anonymous": false,
      "inputs": [
        {
          "indexed": true,
          "internalType": "address",
          "name": "operator",
          "type": "address"
        },
        {
          "indexed": true,
          "internalType": "address",
          "name": "from",
          "type": "address"
        },
        {
          "indexed": true,
          "internalType": "address",
          "name": "to",
          "type": "address"
        },
        {
          "indexed": false,
          "internalType": "uint256",
          "name": "id",
          "type": "uint256"
        },
        {
          "indexed": false,
          "internalType": "uint256",
          "name": "value",
          "type": "uint256"
        }
      ],
      "name": "TransferSingle",
      "type": "event"
    },
    {
      "anonymous": false,
      "inputs": [
        {
          "indexed": false,
          "internalType": "string",
          "name": "value",
          "type": "string"
        },
        {
          "indexed": true,
          "internalType": "uint256",
          "name": "id",
          "type": "uint256"
        }
      ],
      "name": "URI",
      "type": "event"
    },
    {
      "inputs": [
        {
          "internalType": "address",
          "name": "account",
          "type": "address"
        },
        {
          "internalType": "uint256",
          "name": "id",
          "type": "uint256"
        }
      ],
      "name": "balanceOf",
      "outputs": [
        {
          "internalType": "uint256",
          "name": "",
          "type": "uint256"
        }
      ],
      "stateMutability": "view",
      "type": "function"
    },
    {
      "inputs": [
        {
          "internalType": "address[]",
          "name": "accounts",
          "type": "address[]"
        },
        {
          "internalType": "uint256[]",
          "name": "ids",
          "type": "uint256[]"
        }
      ],
      "name": "balanceOfBatch",
      "outputs": [
        {
          "internalType": "uint256[]",
          "name": "",
          "type": "uint256[]"
        }
      ],
      "stateMutability": "view",
      "type": "function"
    },
    {
      "inputs": [
        {
          "internalType": "address",
          "name": "account",
          "type": "address"
        },
        {
          "internalType": "address",
          "name": "operator",
          "type": "address"
        }
      ],
      "name": "isApprovedForAll",
      "outputs": [
        {
          "internalType": "bool",
          "name": "",
          "type": "bool"
        }
      ],
      "stateMutability": "view",
      "type": "function"
    },
    {
      "inputs": [
        {
          "internalType": "address",
          "name": "forwarder",
          "type": "address"
        }
      ],
      "name": "isTrustedForwarder",
      "outputs": [
        {
          "internalType": "bool",
          "name": "",
          "type": "bool"
        }
      ],
      "stateMutability": "view",
      "type": "function"
    },
    {
      "inputs": [],
      "name": "name",
      "outputs": [
        {
          "internalType": "string",
          "name": "",
          "type": "string"
        }
      ],
      "stateMutability": "view",
      "type": "function"
    },
    {
      "inputs": [
        {
          "internalType": "address",
          "name": "_account",
          "type": "address"
        },
        {
          "internalType": "uint256",
          "name": "_tokenId",
          "type": "uint256"
        },
        {
          "internalType": "uint256",
          "name": "_amount",
          "type": "uint256"
        },
        {
          "internalType": "bytes",
          "name": "_data",
          "type": "bytes"
        },
        {
          "internalType": "bytes",
          "name": "_signature",
          "type": "bytes"
        }
      ],
      "name": "redeem",
      "outputs": [],
      "stateMutability": "payable",
      "type": "function"
    },
    {
      "inputs": [
        {
          "internalType": "address",
          "name": "from",
          "type": "address"
        },
        {
          "internalType": "address",
          "name": "to",
          "type": "address"
        },
        {
          "internalType": "uint256[]",
          "name": "ids",
          "type": "uint256[]"
        },
        {
          "internalType": "uint256[]",
          "name": "amounts",
          "type": "uint256[]"
        },
        {
          "internalType": "bytes",
          "name": "data",
          "type": "bytes"
        }
      ],
      "name": "safeBatchTransferFrom",
      "outputs": [],
      "stateMutability": "nonpayable",
      "type": "function"
    },
    {
      "inputs": [
        {
          "internalType": "address",
          "name": "from",
          "type": "address"
        },
        {
          "internalType": "address",
          "name": "to",
          "type": "address"
        },
        {
          "internalType": "uint256",
          "name": "id",
          "type": "uint256"
        },
        {
          "internalType": "uint256",
          "name": "amount",
          "type": "uint256"
        },
        {
          "internalType": "bytes",
          "name": "data",
          "type": "bytes"
        }
      ],
      "name": "safeTransferFrom",
      "outputs": [],
      "stateMutability": "nonpayable",
      "type": "function"
    },
    {
      "inputs": [
        {
          "internalType": "address",
          "name": "operator",
          "type": "address"
        },
        {
          "internalType": "bool",
          "name": "approved",
          "type": "bool"
        }
      ],
      "name": "setApprovalForAll",
      "outputs": [],
      "stateMutability": "nonpayable",
      "type": "function"
    },
    {
      "inputs": [
        {
          "internalType": "bytes4",
          "name": "interfaceId",
          "type": "bytes4"
        }
      ],
      "name": "supportsInterface",
      "outputs": [
        {
          "internalType": "bool",
          "name": "",
          "type": "bool"
        }
      ],
      "stateMutability": "view",
      "type": "function"
    },
    {
      "inputs": [],
      "name": "symbol",
      "outputs": [
        {
          "internalType": "string",
          "name": "",
          "type": "string"
        }
      ],
      "stateMutability": "view",
      "type": "function"
    },
    {
      "inputs": [
        {
          "internalType": "uint256",
          "name": "",
          "type": "uint256"
        }
      ],
      "name": "uri",
      "outputs": [
        {
          "internalType": "string",
          "name": "",
          "type": "string"
        }
      ],
      "stateMutability": "view",
      "type": "function"
    }
  ],
  "bytecode": "0x6101606040523480156200001257600080fd5b5060405162003da438038062003da483398181016040528101906200003891906200042b565b6040518060400160405280600d81526020017f455243313135354d6574615478000000000000000000000000000000000000008152506040518060400160405280600581526020017f312e302e300000000000000000000000000000000000000000000000000000008152508585620000b781620001ce60201b60201c565b508073ffffffffffffffffffffffffffffffffffffffff1660808173ffffffffffffffffffffffffffffffffffffffff16815250505060008280519060200120905060008280519060200120905060007f8b73c3c69bb8fe3d512ecc4cf759cc79239f7b179b0ffacaa9a75d522b39400f90508261010081815250508161012081815250504660c0818152505062000157818484620001e360201b60201c565b60a081815250503073ffffffffffffffffffffffffffffffffffffffff1660e08173ffffffffffffffffffffffffffffffffffffffff168152505080610140818152505050505050508160039081620001b1919062000745565b508060049081620001c3919062000745565b5050505050620008c6565b8060029081620001df919062000745565b5050565b600083838346306040516020016200020095949392919062000869565b6040516020818303038152906040528051906020012090509392505050565b6000604051905090565b600080fd5b600080fd5b600073ffffffffffffffffffffffffffffffffffffffff82169050919050565b6000620002608262000233565b9050919050565b6000620002748262000253565b9050919050565b620002868162000267565b81146200029257600080fd5b50565b600081519050620002a6816200027b565b92915050565b600080fd5b600080fd5b6000601f19601f8301169050919050565b7f4e487b7100000000000000000000000000000000000000000000000000000000600052604160045260246000fd5b6200030182620002b6565b810181811067ffffffffffffffff82111715620003235762000322620002c7565b5b80604052505050565b6000620003386200021f565b9050620003468282620002f6565b919050565b600067ffffffffffffffff821115620003695762000368620002c7565b5b6200037482620002b6565b9050602081019050919050565b60005b83811015620003a157808201518184015260208101905062000384565b60008484015250505050565b6000620003c4620003be846200034b565b6200032c565b905082815260208101848484011115620003e357620003e2620002b1565b5b620003f084828562000381565b509392505050565b600082601f83011262000410576200040f620002ac565b5b815162000422848260208601620003ad565b91505092915050565b6000806000806080858703121562000448576200044762000229565b5b6000620004588782880162000295565b945050602085015167ffffffffffffffff8111156200047c576200047b6200022e565b5b6200048a87828801620003f8565b935050604085015167ffffffffffffffff811115620004ae57620004ad6200022e565b5b620004bc87828801620003f8565b925050606085015167ffffffffffffffff811115620004e057620004df6200022e565b5b620004ee87828801620003f8565b91505092959194509250565b600081519050919050565b7f4e487b7100000000000000000000000000000000000000000000000000000000600052602260045260246000fd5b600060028204905060018216806200054d57607f821691505b60208210810362000563576200056262000505565b5b50919050565b60008190508160005260206000209050919050565b60006020601f8301049050919050565b600082821b905092915050565b600060088302620005cd7fffffffffffffffffffffffffffffffffffffffffffffffffffffffffffffffff826200058e565b620005d986836200058e565b95508019841693508086168417925050509392505050565b6000819050919050565b6000819050919050565b600062000626620006206200061a84620005f1565b620005fb565b620005f1565b9050919050565b6000819050919050565b620006428362000605565b6200065a62000651826200062d565b8484546200059b565b825550505050565b600090565b6200067162000662565b6200067e81848462000637565b505050565b5b81811015620006a6576200069a60008262000667565b60018101905062000684565b5050565b601f821115620006f557620006bf8162000569565b620006ca846200057e565b81016020851015620006da578190505b620006f2620006e9856200057e565b83018262000683565b50505b505050565b600082821c905092915050565b60006200071a60001984600802620006fa565b1980831691505092915050565b600062000735838362000707565b9150826002028217905092915050565b6200075082620004fa565b67ffffffffffffffff8111156200076c576200076b620002c7565b5b62000778825462000534565b62000785828285620006aa565b600060209050601f831160018114620007bd5760008415620007a8578287015190505b620007b4858262000727565b86555062000824565b601f198416620007cd8662000569565b60005b82811015620007f757848901518255600182019150602085019450602081019050620007d0565b8683101562000817578489015162000813601f89168262000707565b8355505b6001600288020188555050505b505050505050565b6000819050919050565b62000841816200082c565b82525050565b6200085281620005f1565b82525050565b620008638162000253565b82525050565b600060a08201905062000880600083018862000836565b6200088f602083018762000836565b6200089e604083018662000836565b620008ad606083018562000847565b620008bc608083018462000858565b9695505050505050565b60805160a05160c05160e051610100516101205161014051613483620009216000396000611a0601526000611a4801526000611a270152600061195c015260006119b2015260006119db015260006106c001526134836000f3fe6080604052600436106100a65760003560e01c8063572b6c0511610064578063572b6c05146101f357806395d89b4114610230578063a22cb4651461025b578063e985e9c514610284578063eb4e5fe7146102c1578063f242432a146102dd576100a6565b8062fdd58e146100ab57806301ffc9a7146100e857806306fdde03146101255780630e89341c146101505780632eb2c2d61461018d5780634e1273f4146101b6575b600080fd5b3480156100b757600080fd5b506100d260048036038101906100cd9190611e20565b610306565b6040516100df9190611e6f565b60405180910390f35b3480156100f457600080fd5b5061010f600480360381019061010a9190611ee2565b6103ce565b60405161011c9190611f2a565b60405180910390f35b34801561013157600080fd5b5061013a6103e0565b6040516101479190611fd5565b60405180910390f35b34801561015c57600080fd5b5061017760048036038101906101729190611ff7565b61046e565b6040516101849190611fd5565b60405180910390f35b34801561019957600080fd5b506101b460048036038101906101af9190612221565b610502565b005b3480156101c257600080fd5b506101dd60048036038101906101d891906123b3565b6105a3565b6040516101ea91906124e9565b60405180910390f35b3480156101ff57600080fd5b5061021a6004803603810190610215919061250b565b6106bc565b6040516102279190611f2a565b60405180910390f35b34801561023c57600080fd5b50610245610714565b6040516102529190611fd5565b60405180910390f35b34801561026757600080fd5b50610282600480360381019061027d9190612564565b6107a2565b005b34801561029057600080fd5b506102ab60048036038101906102a691906125a4565b6107b8565b6040516102b89190611f2a565b60405180910390f35b6102db60048036038101906102d6919061263f565b61084c565b005b3480156102e957600080fd5b5061030460048036038101906102ff91906126f5565b610862565b005b60008073ffffffffffffffffffffffffffffffffffffffff168373ffffffffffffffffffffffffffffffffffffffff1603610376576040517f08c379a000000000000000000000000000000000000000000000000000000000815260040161036d906127fe565b60405180910390fd5b60008083815260200190815260200160002060008473ffffffffffffffffffffffffffffffffffffffff1673ffffffffffffffffffffffffffffffffffffffff16815260200190815260200160002054905092915050565b60006103d982610903565b9050919050565b600380546103ed9061284d565b80601f01602080910402602001604051908101604052809291908181526020018280546104199061284d565b80156104665780601f1061043b57610100808354040283529160200191610466565b820191906000526020600020905b81548152906001019060200180831161044957829003601f168201915b505050505081565b60606002805461047d9061284d565b80601f01602080910402602001604051908101604052809291908181526020018280546104a99061284d565b80156104f65780601f106104cb576101008083540402835291602001916104f6565b820191906000526020600020905b8154815290600101906020018083116104d957829003601f168201915b50505050509050919050565b61050a6109e5565b73ffffffffffffffffffffffffffffffffffffffff168573ffffffffffffffffffffffffffffffffffffffff161480610550575061054f8561054a6109e5565b6107b8565b5b61058f576040517f08c379a0000000000000000000000000000000000000000000000000000000008152600401610586906128f0565b60405180910390fd5b61059c85858585856109f4565b5050505050565b606081518351146105e9576040517f08c379a00000000000000000000000000000000000000000000000000000000081526004016105e090612982565b60405180910390fd5b6000835167ffffffffffffffff81111561060657610605612029565b5b6040519080825280602002602001820160405280156106345781602001602082028036833780820191505090505b50905060005b84518110156106b157610681858281518110610659576106586129a2565b5b6020026020010151858381518110610674576106736129a2565b5b6020026020010151610306565b828281518110610694576106936129a2565b5b602002602001018181525050806106aa90612a00565b905061063a565b508091505092915050565b60007f000000000000000000000000000000000000000000000000000000000000000073ffffffffffffffffffffffffffffffffffffffff168273ffffffffffffffffffffffffffffffffffffffff16149050919050565b600480546107219061284d565b80601f016020809104026020016040519081016040528092919081815260200182805461074d9061284d565b801561079a5780601f1061076f5761010080835404028352916020019161079a565b820191906000526020600020905b81548152906001019060200180831161077d57829003601f168201915b505050505081565b6107b46107ad6109e5565b8383610d15565b5050565b6000600160008473ffffffffffffffffffffffffffffffffffffffff1673ffffffffffffffffffffffffffffffffffffffff16815260200190815260200160002060008373ffffffffffffffffffffffffffffffffffffffff1673ffffffffffffffffffffffffffffffffffffffff16815260200190815260200160002060009054906101000a900460ff16905092915050565b61085a868686868686610e81565b505050505050565b61086a6109e5565b73ffffffffffffffffffffffffffffffffffffffff168573ffffffffffffffffffffffffffffffffffffffff1614806108b057506108af856108aa6109e5565b6107b8565b5b6108ef576040517f08c379a00000000000000000000000000000000000000000000000000000000081526004016108e6906128f0565b60405180910390fd5b6108fc8585858585610f22565b5050505050565b60007fd9b67a26000000000000000000000000000000000000000000000000000000007bffffffffffffffffffffffffffffffffffffffffffffffffffffffff1916827bffffffffffffffffffffffffffffffffffffffffffffffffffffffff191614806109ce57507f0e89341c000000000000000000000000000000000000000000000000000000007bffffffffffffffffffffffffffffffffffffffffffffffffffffffff1916827bffffffffffffffffffffffffffffffffffffffffffffffffffffffff1916145b806109de57506109dd826111bd565b5b9050919050565b60006109ef611227565b905090565b8151835114610a38576040517f08c379a0000000000000000000000000000000000000000000000000000000008152600401610a2f90612aba565b60405180910390fd5b600073ffffffffffffffffffffffffffffffffffffffff168473ffffffffffffffffffffffffffffffffffffffff1603610aa7576040517f08c379a0000000000000000000000000000000000000000000000000000000008152600401610a9e90612b4c565b60405180910390fd5b6000610ab16109e5565b9050610ac1818787878787611259565b60005b8451811015610c72576000858281518110610ae257610ae16129a2565b5b602002602001015190506000858381518110610b0157610b006129a2565b5b60200260200101519050600080600084815260200190815260200160002060008b73ffffffffffffffffffffffffffffffffffffffff1673ffffffffffffffffffffffffffffffffffffffff16815260200190815260200160002054905081811015610ba2576040517f08c379a0000000000000000000000000000000000000000000000000000000008152600401610b9990612bde565b60405180910390fd5b81810360008085815260200190815260200160002060008c73ffffffffffffffffffffffffffffffffffffffff1673ffffffffffffffffffffffffffffffffffffffff168152602001908152602001600020819055508160008085815260200190815260200160002060008b73ffffffffffffffffffffffffffffffffffffffff1673ffffffffffffffffffffffffffffffffffffffff1681526020019081526020016000206000828254610c579190612bfe565b9250508190555050505080610c6b90612a00565b9050610ac4565b508473ffffffffffffffffffffffffffffffffffffffff168673ffffffffffffffffffffffffffffffffffffffff168273ffffffffffffffffffffffffffffffffffffffff167f4a39dc06d4c0dbc64b70af90fd698a233a518aa5d07e595d983b8c0526c8f7fb8787604051610ce9929190612c32565b60405180910390a4610cff818787878787611261565b610d0d818787878787611269565b505050505050565b8173ffffffffffffffffffffffffffffffffffffffff168373ffffffffffffffffffffffffffffffffffffffff1603610d83576040517f08c379a0000000000000000000000000000000000000000000000000000000008152600401610d7a90612cdb565b60405180910390fd5b80600160008573ffffffffffffffffffffffffffffffffffffffff1673ffffffffffffffffffffffffffffffffffffffff16815260200190815260200160002060008473ffffffffffffffffffffffffffffffffffffffff1673ffffffffffffffffffffffffffffffffffffffff16815260200190815260200160002060006101000a81548160ff0219169083151502179055508173ffffffffffffffffffffffffffffffffffffffff168373ffffffffffffffffffffffffffffffffffffffff167f17307eab39ab6107e8899845ad3d59bd9653f200f220920489ca2b5937696c3183604051610e749190611f2a565b60405180910390a3505050565b610ed8610e8e8686611440565b83838080601f016020809104026020016040519081016040528093929190818152602001838380828437600081840152601f19601f8201169050808301925050505050505061149d565b610f0e576040517f8baa579f00000000000000000000000000000000000000000000000000000000815260040160405180910390fd5b610f1a868686866114eb565b505050505050565b600073ffffffffffffffffffffffffffffffffffffffff168473ffffffffffffffffffffffffffffffffffffffff1603610f91576040517f08c379a0000000000000000000000000000000000000000000000000000000008152600401610f8890612b4c565b60405180910390fd5b6000610f9b6109e5565b90506000610fa88561169b565b90506000610fb58561169b565b9050610fc5838989858589611259565b600080600088815260200190815260200160002060008a73ffffffffffffffffffffffffffffffffffffffff1673ffffffffffffffffffffffffffffffffffffffff1681526020019081526020016000205490508581101561105c576040517f08c379a000000000000000000000000000000000000000000000000000000000815260040161105390612bde565b60405180910390fd5b85810360008089815260200190815260200160002060008b73ffffffffffffffffffffffffffffffffffffffff1673ffffffffffffffffffffffffffffffffffffffff168152602001908152602001600020819055508560008089815260200190815260200160002060008a73ffffffffffffffffffffffffffffffffffffffff1673ffffffffffffffffffffffffffffffffffffffff16815260200190815260200160002060008282546111119190612bfe565b925050819055508773ffffffffffffffffffffffffffffffffffffffff168973ffffffffffffffffffffffffffffffffffffffff168573ffffffffffffffffffffffffffffffffffffffff167fc3d58168c5ae7397731d063d5bbf3d657854427343f4c083240f7aacaa2d0f628a8a60405161118e929190612cfb565b60405180910390a46111a4848a8a86868a611261565b6111b2848a8a8a8a8a611715565b505050505050505050565b60007f01ffc9a7000000000000000000000000000000000000000000000000000000007bffffffffffffffffffffffffffffffffffffffffffffffffffffffff1916827bffffffffffffffffffffffffffffffffffffffffffffffffffffffff1916149050919050565b6000611232336106bc565b1561124657601436033560601c9050611255565b61124e6118ec565b9050611256565b5b90565b505050505050565b505050505050565b6112888473ffffffffffffffffffffffffffffffffffffffff166118f4565b15611438578373ffffffffffffffffffffffffffffffffffffffff1663bc197c8187878686866040518663ffffffff1660e01b81526004016112ce959493929190612d88565b6020604051808303816000875af192505050801561130a57506040513d601f19601f820116820180604052508101906113079190612e05565b60015b6113af57611316612e3f565b806308c379a003611372575061132a612e61565b806113355750611374565b806040517f08c379a00000000000000000000000000000000000000000000000000000000081526004016113699190611fd5565b60405180910390fd5b505b6040517f08c379a00000000000000000000000000000000000000000000000000000000081526004016113a690612f63565b60405180910390fd5b63bc197c8160e01b7bffffffffffffffffffffffffffffffffffffffffffffffffffffffff1916817bffffffffffffffffffffffffffffffffffffffffffffffffffffffff191614611436576040517f08c379a000000000000000000000000000000000000000000000000000000000815260040161142d90612ff5565b60405180910390fd5b505b505050505050565b60006114957f153155951f201a9cf305d129ebd1363ce73f9e70477efc0280da26ff0553d365848460405160200161147a9392919061302e565b60405160208183030381529060405280519060200120611917565b905092915050565b6000806114aa8484611931565b90508073ffffffffffffffffffffffffffffffffffffffff166114cb6109e5565b73ffffffffffffffffffffffffffffffffffffffff161491505092915050565b600073ffffffffffffffffffffffffffffffffffffffff168473ffffffffffffffffffffffffffffffffffffffff160361155a576040517f08c379a0000000000000000000000000000000000000000000000000000000008152600401611551906130d7565b60405180910390fd5b60006115646109e5565b905060006115718561169b565b9050600061157e8561169b565b905061158f83600089858589611259565b8460008088815260200190815260200160002060008973ffffffffffffffffffffffffffffffffffffffff1673ffffffffffffffffffffffffffffffffffffffff16815260200190815260200160002060008282546115ee9190612bfe565b925050819055508673ffffffffffffffffffffffffffffffffffffffff16600073ffffffffffffffffffffffffffffffffffffffff168473ffffffffffffffffffffffffffffffffffffffff167fc3d58168c5ae7397731d063d5bbf3d657854427343f4c083240f7aacaa2d0f62898960405161166c929190612cfb565b60405180910390a461168383600089858589611261565b61169283600089898989611715565b50505050505050565b60606000600167ffffffffffffffff8111156116ba576116b9612029565b5b6040519080825280602002602001820160405280156116e85781602001602082028036833780820191505090505b5090508281600081518110611700576116ff6129a2565b5b60200260200101818152505080915050919050565b6117348473ffffffffffffffffffffffffffffffffffffffff166118f4565b156118e4578373ffffffffffffffffffffffffffffffffffffffff1663f23a6e6187878686866040518663ffffffff1660e01b815260040161177a9594939291906130f7565b6020604051808303816000875af19250505080156117b657506040513d601f19601f820116820180604052508101906117b39190612e05565b60015b61185b576117c2612e3f565b806308c379a00361181e57506117d6612e61565b806117e15750611820565b806040517f08c379a00000000000000000000000000000000000000000000000000000000081526004016118159190611fd5565b60405180910390fd5b505b6040517f08c379a000000000000000000000000000000000000000000000000000000000815260040161185290612f63565b60405180910390fd5b63f23a6e6160e01b7bffffffffffffffffffffffffffffffffffffffffffffffffffffffff1916817bffffffffffffffffffffffffffffffffffffffffffffffffffffffff1916146118e2576040517f08c379a00000000000000000000000000000000000000000000000000000000081526004016118d990612ff5565b60405180910390fd5b505b505050505050565b600033905090565b6000808273ffffffffffffffffffffffffffffffffffffffff163b119050919050565b600061192a611924611958565b83611a72565b9050919050565b60008060006119408585611aa5565b9150915061194d81611af6565b819250505092915050565b60007f000000000000000000000000000000000000000000000000000000000000000073ffffffffffffffffffffffffffffffffffffffff163073ffffffffffffffffffffffffffffffffffffffff161480156119d457507f000000000000000000000000000000000000000000000000000000000000000046145b15611a01577f00000000000000000000000000000000000000000000000000000000000000009050611a6f565b611a6c7f00000000000000000000000000000000000000000000000000000000000000007f00000000000000000000000000000000000000000000000000000000000000007f0000000000000000000000000000000000000000000000000000000000000000611c5c565b90505b90565b60008282604051602001611a879291906131c9565b60405160208183030381529060405280519060200120905092915050565b6000806041835103611ae65760008060006020860151925060408601519150606086015160001a9050611ada87828585611c96565b94509450505050611aef565b60006002915091505b9250929050565b60006004811115611b0a57611b09613200565b5b816004811115611b1d57611b1c613200565b5b0315611c595760016004811115611b3757611b36613200565b5b816004811115611b4a57611b49613200565b5b03611b8a576040517f08c379a0000000000000000000000000000000000000000000000000000000008152600401611b819061327b565b60405180910390fd5b60026004811115611b9e57611b9d613200565b5b816004811115611bb157611bb0613200565b5b03611bf1576040517f08c379a0000000000000000000000000000000000000000000000000000000008152600401611be8906132e7565b60405180910390fd5b60036004811115611c0557611c04613200565b5b816004811115611c1857611c17613200565b5b03611c58576040517f08c379a0000000000000000000000000000000000000000000000000000000008152600401611c4f90613379565b60405180910390fd5b5b50565b60008383834630604051602001611c77959493929190613399565b6040516020818303038152906040528051906020012090509392505050565b6000807f7fffffffffffffffffffffffffffffff5d576e7357a4501ddfe92f46681b20a08360001c1115611cd1576000600391509150611d6f565b600060018787878760405160008152602001604052604051611cf69493929190613408565b6020604051602081039080840390855afa158015611d18573d6000803e3d6000fd5b505050602060405103519050600073ffffffffffffffffffffffffffffffffffffffff168173ffffffffffffffffffffffffffffffffffffffff1603611d6657600060019250925050611d6f565b80600092509250505b94509492505050565b6000604051905090565b600080fd5b600080fd5b600073ffffffffffffffffffffffffffffffffffffffff82169050919050565b6000611db782611d8c565b9050919050565b611dc781611dac565b8114611dd257600080fd5b50565b600081359050611de481611dbe565b92915050565b6000819050919050565b611dfd81611dea565b8114611e0857600080fd5b50565b600081359050611e1a81611df4565b92915050565b60008060408385031215611e3757611e36611d82565b5b6000611e4585828601611dd5565b9250506020611e5685828601611e0b565b9150509250929050565b611e6981611dea565b82525050565b6000602082019050611e846000830184611e60565b92915050565b60007fffffffff0000000000000000000000000000000000000000000000000000000082169050919050565b611ebf81611e8a565b8114611eca57600080fd5b50565b600081359050611edc81611eb6565b92915050565b600060208284031215611ef857611ef7611d82565b5b6000611f0684828501611ecd565b91505092915050565b60008115159050919050565b611f2481611f0f565b82525050565b6000602082019050611f3f6000830184611f1b565b92915050565b600081519050919050565b600082825260208201905092915050565b60005b83811015611f7f578082015181840152602081019050611f64565b60008484015250505050565b6000601f19601f8301169050919050565b6000611fa782611f45565b611fb18185611f50565b9350611fc1818560208601611f61565b611fca81611f8b565b840191505092915050565b60006020820190508181036000830152611fef8184611f9c565b905092915050565b60006020828403121561200d5761200c611d82565b5b600061201b84828501611e0b565b91505092915050565b600080fd5b7f4e487b7100000000000000000000000000000000000000000000000000000000600052604160045260246000fd5b61206182611f8b565b810181811067ffffffffffffffff821117156120805761207f612029565b5b80604052505050565b6000612093611d78565b905061209f8282612058565b919050565b600067ffffffffffffffff8211156120bf576120be612029565b5b602082029050602081019050919050565b600080fd5b60006120e86120e3846120a4565b612089565b9050808382526020820190506020840283018581111561210b5761210a6120d0565b5b835b8181101561213457806121208882611e0b565b84526020840193505060208101905061210d565b5050509392505050565b600082601f83011261215357612152612024565b5b81356121638482602086016120d5565b91505092915050565b600080fd5b600067ffffffffffffffff82111561218c5761218b612029565b5b61219582611f8b565b9050602081019050919050565b82818337600083830152505050565b60006121c46121bf84612171565b612089565b9050828152602081018484840111156121e0576121df61216c565b5b6121eb8482856121a2565b509392505050565b600082601f83011261220857612207612024565b5b81356122188482602086016121b1565b91505092915050565b600080600080600060a0868803121561223d5761223c611d82565b5b600061224b88828901611dd5565b955050602061225c88828901611dd5565b945050604086013567ffffffffffffffff81111561227d5761227c611d87565b5b6122898882890161213e565b935050606086013567ffffffffffffffff8111156122aa576122a9611d87565b5b6122b68882890161213e565b925050608086013567ffffffffffffffff8111156122d7576122d6611d87565b5b6122e3888289016121f3565b9150509295509295909350565b600067ffffffffffffffff82111561230b5761230a612029565b5b602082029050602081019050919050565b600061232f61232a846122f0565b612089565b90508083825260208201905060208402830185811115612352576123516120d0565b5b835b8181101561237b57806123678882611dd5565b845260208401935050602081019050612354565b5050509392505050565b600082601f83011261239a57612399612024565b5b81356123aa84826020860161231c565b91505092915050565b600080604083850312156123ca576123c9611d82565b5b600083013567ffffffffffffffff8111156123e8576123e7611d87565b5b6123f485828601612385565b925050602083013567ffffffffffffffff81111561241557612414611d87565b5b6124218582860161213e565b9150509250929050565b600081519050919050565b600082825260208201905092915050565b6000819050602082019050919050565b61246081611dea565b82525050565b60006124728383612457565b60208301905092915050565b6000602082019050919050565b60006124968261242b565b6124a08185612436565b93506124ab83612447565b8060005b838110156124dc5781516124c38882612466565b97506124ce8361247e565b9250506001810190506124af565b5085935050505092915050565b60006020820190508181036000830152612503818461248b565b905092915050565b60006020828403121561252157612520611d82565b5b600061252f84828501611dd5565b91505092915050565b61254181611f0f565b811461254c57600080fd5b50565b60008135905061255e81612538565b92915050565b6000806040838503121561257b5761257a611d82565b5b600061258985828601611dd5565b925050602061259a8582860161254f565b9150509250929050565b600080604083850312156125bb576125ba611d82565b5b60006125c985828601611dd5565b92505060206125da85828601611dd5565b9150509250929050565b600080fd5b60008083601f8401126125ff576125fe612024565b5b8235905067ffffffffffffffff81111561261c5761261b6125e4565b5b602083019150836001820283011115612638576126376120d0565b5b9250929050565b60008060008060008060a0878903121561265c5761265b611d82565b5b600061266a89828a01611dd5565b965050602061267b89828a01611e0b565b955050604061268c89828a01611e0b565b945050606087013567ffffffffffffffff8111156126ad576126ac611d87565b5b6126b989828a016121f3565b935050608087013567ffffffffffffffff8111156126da576126d9611d87565b5b6126e689828a016125e9565b92509250509295509295509295565b600080600080600060a0868803121561271157612710611d82565b5b600061271f88828901611dd5565b955050602061273088828901611dd5565b945050604061274188828901611e0b565b935050606061275288828901611e0b565b925050608086013567ffffffffffffffff81111561277357612772611d87565b5b61277f888289016121f3565b9150509295509295909350565b7f455243313135353a2061646472657373207a65726f206973206e6f742061207660008201527f616c6964206f776e657200000000000000000000000000000000000000000000602082015250565b60006127e8602a83611f50565b91506127f38261278c565b604082019050919050565b60006020820190508181036000830152612817816127db565b9050919050565b7f4e487b7100000000000000000000000000000000000000000000000000000000600052602260045260246000fd5b6000600282049050600182168061286557607f821691505b6020821081036128785761287761281e565b5b50919050565b7f455243313135353a2063616c6c6572206973206e6f7420746f6b656e206f776e60008201527f6572206f7220617070726f766564000000000000000000000000000000000000602082015250565b60006128da602e83611f50565b91506128e58261287e565b604082019050919050565b60006020820190508181036000830152612909816128cd565b9050919050565b7f455243313135353a206163636f756e747320616e6420696473206c656e67746860008201527f206d69736d617463680000000000000000000000000000000000000000000000602082015250565b600061296c602983611f50565b915061297782612910565b604082019050919050565b6000602082019050818103600083015261299b8161295f565b9050919050565b7f4e487b7100000000000000000000000000000000000000000000000000000000600052603260045260246000fd5b7f4e487b7100000000000000000000000000000000000000000000000000000000600052601160045260246000fd5b6000612a0b82611dea565b91507fffffffffffffffffffffffffffffffffffffffffffffffffffffffffffffffff8203612a3d57612a3c6129d1565b5b600182019050919050565b7f455243313135353a2069647320616e6420616d6f756e7473206c656e6774682060008201527f6d69736d61746368000000000000000000000000000000000000000000000000602082015250565b6000612aa4602883611f50565b9150612aaf82612a48565b604082019050919050565b60006020820190508181036000830152612ad381612a97565b9050919050565b7f455243313135353a207472616e7366657220746f20746865207a65726f20616460008201527f6472657373000000000000000000000000000000000000000000000000000000602082015250565b6000612b36602583611f50565b9150612b4182612ada565b604082019050919050565b60006020820190508181036000830152612b6581612b29565b9050919050565b7f455243313135353a20696e73756666696369656e742062616c616e636520666f60008201527f72207472616e7366657200000000000000000000000000000000000000000000602082015250565b6000612bc8602a83611f50565b9150612bd382612b6c565b604082019050919050565b60006020820190508181036000830152612bf781612bbb565b9050919050565b6000612c0982611dea565b9150612c1483611dea565b9250828201905080821115612c2c57612c2b6129d1565b5b92915050565b60006040820190508181036000830152612c4c818561248b565b90508181036020830152612c60818461248b565b90509392505050565b7f455243313135353a2073657474696e6720617070726f76616c2073746174757360008201527f20666f722073656c660000000000000000000000000000000000000000000000602082015250565b6000612cc5602983611f50565b9150612cd082612c69565b604082019050919050565b60006020820190508181036000830152612cf481612cb8565b9050919050565b6000604082019050612d106000830185611e60565b612d1d6020830184611e60565b9392505050565b612d2d81611dac565b82525050565b600081519050919050565b600082825260208201905092915050565b6000612d5a82612d33565b612d648185612d3e565b9350612d74818560208601611f61565b612d7d81611f8b565b840191505092915050565b600060a082019050612d9d6000830188612d24565b612daa6020830187612d24565b8181036040830152612dbc818661248b565b90508181036060830152612dd0818561248b565b90508181036080830152612de48184612d4f565b90509695505050505050565b600081519050612dff81611eb6565b92915050565b600060208284031215612e1b57612e1a611d82565b5b6000612e2984828501612df0565b91505092915050565b60008160e01c9050919050565b600060033d1115612e5e5760046000803e612e5b600051612e32565b90505b90565b600060443d10612eee57612e73611d78565b60043d036004823e80513d602482011167ffffffffffffffff82111715612e9b575050612eee565b808201805167ffffffffffffffff811115612eb95750505050612eee565b80602083010160043d038501811115612ed6575050505050612eee565b612ee582602001850186612058565b82955050505050505b90565b7f455243313135353a207472616e7366657220746f206e6f6e2d4552433131353560008201527f526563656976657220696d706c656d656e746572000000000000000000000000602082015250565b6000612f4d603483611f50565b9150612f5882612ef1565b604082019050919050565b60006020820190508181036000830152612f7c81612f40565b9050919050565b7f455243313135353a204552433131353552656365697665722072656a6563746560008201527f6420746f6b656e73000000000000000000000000000000000000000000000000602082015250565b6000612fdf602883611f50565b9150612fea82612f83565b604082019050919050565b6000602082019050818103600083015261300e81612fd2565b9050919050565b6000819050919050565b61302881613015565b82525050565b6000606082019050613043600083018661301f565b6130506020830185611e60565b61305d6040830184611e60565b949350505050565b7f455243313135353a206d696e7420746f20746865207a65726f2061646472657360008201527f7300000000000000000000000000000000000000000000000000000000000000602082015250565b60006130c1602183611f50565b91506130cc82613065565b604082019050919050565b600060208201905081810360008301526130f0816130b4565b9050919050565b600060a08201905061310c6000830188612d24565b6131196020830187612d24565b6131266040830186611e60565b6131336060830185611e60565b81810360808301526131458184612d4f565b90509695505050505050565b600081905092915050565b7f1901000000000000000000000000000000000000000000000000000000000000600082015250565b6000613192600283613151565b915061319d8261315c565b600282019050919050565b6000819050919050565b6131c36131be82613015565b6131a8565b82525050565b60006131d482613185565b91506131e082856131b2565b6020820191506131f082846131b2565b6020820191508190509392505050565b7f4e487b7100000000000000000000000000000000000000000000000000000000600052602160045260246000fd5b7f45434453413a20696e76616c6964207369676e61747572650000000000000000600082015250565b6000613265601883611f50565b91506132708261322f565b602082019050919050565b6000602082019050818103600083015261329481613258565b9050919050565b7f45434453413a20696e76616c6964207369676e6174757265206c656e67746800600082015250565b60006132d1601f83611f50565b91506132dc8261329b565b602082019050919050565b60006020820190508181036000830152613300816132c4565b9050919050565b7f45434453413a20696e76616c6964207369676e6174757265202773272076616c60008201527f7565000000000000000000000000000000000000000000000000000000000000602082015250565b6000613363602283611f50565b915061336e82613307565b604082019050919050565b6000602082019050818103600083015261339281613356565b9050919050565b600060a0820190506133ae600083018861301f565b6133bb602083018761301f565b6133c8604083018661301f565b6133d56060830185611e60565b6133e26080830184612d24565b9695505050505050565b600060ff82169050919050565b613402816133ec565b82525050565b600060808201905061341d600083018761301f565b61342a60208301866133f9565b613437604083018561301f565b613444606083018461301f565b9594505050505056fea2646970667358221220d0cefd2395ec4f63ea07d02d94abbd51df01ab7a1204d0986d307dc3471737e564736f6c63430008120033",
  "linkReferences": {},
  "deployedLinkReferences": {}
}